{
  "_format": "hh3-artifact-1",
  "contractName": "InvoiceManager",
  "sourceName": "contracts/Invoice/Invoice.sol",
  "abi": [
    {
      "inputs": [
        {
          "internalType": "uint256",
          "name": "invoiceId",
          "type": "uint256"
        },
        {
          "internalType": "string",
          "name": "description",
          "type": "string"
        },
        {
          "internalType": "uint256",
          "name": "quantity",
          "type": "uint256"
        },
        {
          "internalType": "uint256",
          "name": "unitPrice",
          "type": "uint256"
        }
      ],
      "name": "addItem",
      "outputs": [],
      "stateMutability": "nonpayable",
      "type": "function"
    },
    {
      "inputs": [
        {
          "internalType": "string",
          "name": "title",
          "type": "string"
        },
        {
          "components": [
            {
              "internalType": "string",
              "name": "description",
              "type": "string"
            },
            {
              "internalType": "uint256",
              "name": "quantity",
              "type": "uint256"
            },
            {
              "internalType": "uint256",
              "name": "unitPrice",
              "type": "uint256"
            }
          ],
          "internalType": "struct InvoiceManager.Item[]",
          "name": "items",
          "type": "tuple[]"
        },
        {
          "internalType": "address",
          "name": "payer",
          "type": "address"
        }
      ],
      "name": "createInvoice",
      "outputs": [],
      "stateMutability": "nonpayable",
      "type": "function"
    },
    {
      "inputs": [
        {
          "internalType": "uint256",
          "name": "invoiceId",
          "type": "uint256"
        }
      ],
      "name": "deleteInvoice",
      "outputs": [],
      "stateMutability": "nonpayable",
      "type": "function"
    },
    {
      "inputs": [
        {
          "internalType": "address",
          "name": "attributedAddress",
          "type": "address"
        }
      ],
      "name": "getAttributedInvoice",
      "outputs": [
        {
          "components": [
            {
              "internalType": "address",
              "name": "owner",
              "type": "address"
            },
            {
              "internalType": "address",
              "name": "payer",
              "type": "address"
            },
            {
              "internalType": "uint256",
              "name": "id",
              "type": "uint256"
            },
            {
              "internalType": "string",
              "name": "title",
              "type": "string"
            },
            {
              "internalType": "bool",
              "name": "paid",
              "type": "bool"
            },
            {
              "components": [
                {
                  "internalType": "string",
                  "name": "description",
                  "type": "string"
                },
                {
                  "internalType": "uint256",
                  "name": "quantity",
                  "type": "uint256"
                },
                {
                  "internalType": "uint256",
                  "name": "unitPrice",
                  "type": "uint256"
                }
              ],
              "internalType": "struct InvoiceManager.Item[]",
              "name": "items",
              "type": "tuple[]"
            }
          ],
          "internalType": "struct InvoiceManager.Invoice[]",
          "name": "",
          "type": "tuple[]"
        }
      ],
      "stateMutability": "view",
      "type": "function"
    },
    {
      "inputs": [
        {
          "internalType": "uint256",
          "name": "invoiceId",
          "type": "uint256"
        }
      ],
      "name": "getInvoice",
      "outputs": [
        {
          "components": [
            {
              "internalType": "address",
              "name": "owner",
              "type": "address"
            },
            {
              "internalType": "address",
              "name": "payer",
              "type": "address"
            },
            {
              "internalType": "uint256",
              "name": "id",
              "type": "uint256"
            },
            {
              "internalType": "string",
              "name": "title",
              "type": "string"
            },
            {
              "internalType": "bool",
              "name": "paid",
              "type": "bool"
            },
            {
              "components": [
                {
                  "internalType": "string",
                  "name": "description",
                  "type": "string"
                },
                {
                  "internalType": "uint256",
                  "name": "quantity",
                  "type": "uint256"
                },
                {
                  "internalType": "uint256",
                  "name": "unitPrice",
                  "type": "uint256"
                }
              ],
              "internalType": "struct InvoiceManager.Item[]",
              "name": "items",
              "type": "tuple[]"
            }
          ],
          "internalType": "struct InvoiceManager.Invoice",
          "name": "",
          "type": "tuple"
        }
      ],
      "stateMutability": "view",
      "type": "function"
    },
    {
      "inputs": [
        {
          "internalType": "address",
          "name": "owner",
          "type": "address"
        }
      ],
      "name": "getInvoicesByOwner",
      "outputs": [
        {
          "components": [
            {
              "internalType": "address",
              "name": "owner",
              "type": "address"
            },
            {
              "internalType": "address",
              "name": "payer",
              "type": "address"
            },
            {
              "internalType": "uint256",
              "name": "id",
              "type": "uint256"
            },
            {
              "internalType": "string",
              "name": "title",
              "type": "string"
            },
            {
              "internalType": "bool",
              "name": "paid",
              "type": "bool"
            },
            {
              "components": [
                {
                  "internalType": "string",
                  "name": "description",
                  "type": "string"
                },
                {
                  "internalType": "uint256",
                  "name": "quantity",
                  "type": "uint256"
                },
                {
                  "internalType": "uint256",
                  "name": "unitPrice",
                  "type": "uint256"
                }
              ],
              "internalType": "struct InvoiceManager.Item[]",
              "name": "items",
              "type": "tuple[]"
            }
          ],
          "internalType": "struct InvoiceManager.Invoice[]",
          "name": "",
          "type": "tuple[]"
        }
      ],
      "stateMutability": "view",
      "type": "function"
    },
    {
      "inputs": [
        {
          "internalType": "uint256",
          "name": "invoiceId",
          "type": "uint256"
        }
      ],
      "name": "getItems",
      "outputs": [
        {
          "components": [
            {
              "internalType": "string",
              "name": "description",
              "type": "string"
            },
            {
              "internalType": "uint256",
              "name": "quantity",
              "type": "uint256"
            },
            {
              "internalType": "uint256",
              "name": "unitPrice",
              "type": "uint256"
            }
          ],
          "internalType": "struct InvoiceManager.Item[]",
          "name": "",
          "type": "tuple[]"
        }
      ],
      "stateMutability": "view",
      "type": "function"
    },
    {
      "inputs": [
        {
          "internalType": "uint256",
          "name": "invoiceId",
          "type": "uint256"
        }
      ],
      "name": "getTotalPrice",
      "outputs": [
        {
          "internalType": "uint256",
          "name": "",
          "type": "uint256"
        }
      ],
      "stateMutability": "view",
      "type": "function"
    },
    {
      "inputs": [
        {
          "internalType": "uint256",
          "name": "",
          "type": "uint256"
        }
      ],
      "name": "invoices",
      "outputs": [
        {
          "internalType": "address",
          "name": "owner",
          "type": "address"
        },
        {
          "internalType": "address",
          "name": "payer",
          "type": "address"
        },
        {
          "internalType": "uint256",
          "name": "id",
          "type": "uint256"
        },
        {
          "internalType": "string",
          "name": "title",
          "type": "string"
        },
        {
          "internalType": "bool",
          "name": "paid",
          "type": "bool"
        }
      ],
      "stateMutability": "view",
      "type": "function"
    },
    {
      "inputs": [],
      "name": "nextInvoiceId",
      "outputs": [
        {
          "internalType": "uint256",
          "name": "",
          "type": "uint256"
        }
      ],
      "stateMutability": "view",
      "type": "function"
    },
    {
      "inputs": [
        {
          "internalType": "uint256",
          "name": "invoiceId",
          "type": "uint256"
        }
      ],
      "name": "payInvoice",
      "outputs": [],
      "stateMutability": "payable",
      "type": "function"
    },
    {
      "inputs": [
        {
          "internalType": "uint256",
          "name": "invoiceId",
          "type": "uint256"
        },
        {
          "internalType": "uint256",
          "name": "index",
          "type": "uint256"
        }
      ],
      "name": "removeItem",
      "outputs": [],
      "stateMutability": "nonpayable",
      "type": "function"
    }
  ],
  "bytecode": "0x6080604052348015600e575f5ffd5b50612e398061001c5f395ff3fe6080604052600436106100a6575f3560e01c8063870fc34711610063578063870fc347146101f057806389ef682714610218578063ac60a6cd14610254578063b8e524e214610270578063ca7dd37514610298578063ec67b45d146102d4576100a6565b80633a23cc0a146100aa5780633c195e52146100e65780634e6d1405146101225780636ff2a95314610162578063796c5e941461018c57806380c8610f146101c8575b5f5ffd5b3480156100b5575f5ffd5b506100d060048036038101906100cb9190611c84565b6102fc565b6040516100dd9190611f1c565b60405180910390f35b3480156100f1575f5ffd5b5061010c60048036038101906101079190611f66565b610582565b60405161011991906120d9565b60405180910390f35b34801561012d575f5ffd5b5061014860048036038101906101439190611c84565b61093e565b60405161015995949392919061216e565b60405180910390f35b34801561016d575f5ffd5b50610176610a3f565b60405161018391906121c6565b60405180910390f35b348015610197575f5ffd5b506101b260048036038101906101ad9190611c84565b610a45565b6040516101bf9190612262565b60405180910390f35b3480156101d3575f5ffd5b506101ee60048036038101906101e99190611c84565b610b57565b005b3480156101fb575f5ffd5b5061021660048036038101906102119190612282565b610e1c565b005b348015610223575f5ffd5b5061023e60048036038101906102399190611f66565b610fd5565b60405161024b91906120d9565b60405180910390f35b61026e60048036038101906102699190611c84565b611391565b005b34801561027b575f5ffd5b5061029660048036038101906102919190612553565b611629565b005b3480156102a3575f5ffd5b506102be60048036038101906102b99190611c84565b6118bb565b6040516102cb91906121c6565b60405180910390f35b3480156102df575f5ffd5b506102fa60048036038101906102f591906125db565b611962565b005b610304611b34565b5f5f8381526020019081526020015f206040518060c00160405290815f82015f9054906101000a900473ffffffffffffffffffffffffffffffffffffffff1673ffffffffffffffffffffffffffffffffffffffff1673ffffffffffffffffffffffffffffffffffffffff168152602001600182015f9054906101000a900473ffffffffffffffffffffffffffffffffffffffff1673ffffffffffffffffffffffffffffffffffffffff1673ffffffffffffffffffffffffffffffffffffffff168152602001600282015481526020016003820180546103e290612688565b80601f016020809104026020016040519081016040528092919081815260200182805461040e90612688565b80156104595780601f1061043057610100808354040283529160200191610459565b820191905f5260205f20905b81548152906001019060200180831161043c57829003601f168201915b50505050508152602001600482015f9054906101000a900460ff1615151515815260200160058201805480602002602001604051908101604052809291908181526020015f905b82821015610573578382905f5260205f2090600302016040518060600160405290815f820180546104d090612688565b80601f01602080910402602001604051908101604052809291908181526020018280546104fc90612688565b80156105475780601f1061051e57610100808354040283529160200191610547565b820191905f5260205f20905b81548152906001019060200180831161052a57829003601f168201915b5050505050815260200160018201548152602001600282015481525050815260200190600101906104a0565b50505050815250509050919050565b60605f60015f8473ffffffffffffffffffffffffffffffffffffffff1673ffffffffffffffffffffffffffffffffffffffff1681526020019081526020015f2080548060200260200160405190810160405280929190818152602001828054801561060a57602002820191905f5260205f20905b8154815260200190600101908083116105f6575b505050505090505f815167ffffffffffffffff81111561062d5761062c6122c8565b5b60405190808252806020026020018201604052801561066657816020015b610653611b34565b81526020019060019003908161064b5790505b5090505f5f90505b8251811015610933575f5f84838151811061068c5761068b6126b8565b5b602002602001015181526020019081526020015f206040518060c00160405290815f82015f9054906101000a900473ffffffffffffffffffffffffffffffffffffffff1673ffffffffffffffffffffffffffffffffffffffff1673ffffffffffffffffffffffffffffffffffffffff168152602001600182015f9054906101000a900473ffffffffffffffffffffffffffffffffffffffff1673ffffffffffffffffffffffffffffffffffffffff1673ffffffffffffffffffffffffffffffffffffffff1681526020016002820154815260200160038201805461076f90612688565b80601f016020809104026020016040519081016040528092919081815260200182805461079b90612688565b80156107e65780601f106107bd576101008083540402835291602001916107e6565b820191905f5260205f20905b8154815290600101906020018083116107c957829003601f168201915b50505050508152602001600482015f9054906101000a900460ff1615151515815260200160058201805480602002602001604051908101604052809291908181526020015f905b82821015610900578382905f5260205f2090600302016040518060600160405290815f8201805461085d90612688565b80601f016020809104026020016040519081016040528092919081815260200182805461088990612688565b80156108d45780601f106108ab576101008083540402835291602001916108d4565b820191905f5260205f20905b8154815290600101906020018083116108b757829003601f168201915b50505050508152602001600182015481526020016002820154815250508152602001906001019061082d565b505050508152505082828151811061091b5761091a6126b8565b5b6020026020010181905250808060010191505061066e565b508092505050919050565b5f602052805f5260405f205f91509050805f015f9054906101000a900473ffffffffffffffffffffffffffffffffffffffff1690806001015f9054906101000a900473ffffffffffffffffffffffffffffffffffffffff16908060020154908060030180546109ac90612688565b80601f01602080910402602001604051908101604052809291908181526020018280546109d890612688565b8015610a235780601f106109fa57610100808354040283529160200191610a23565b820191905f5260205f20905b815481529060010190602001808311610a0657829003601f168201915b505050505090806004015f9054906101000a900460ff16905085565b60035481565b60605f5f8381526020019081526020015f20600501805480602002602001604051908101604052809291908181526020015f905b82821015610b4c578382905f5260205f2090600302016040518060600160405290815f82018054610aa990612688565b80601f0160208091040260200160405190810160405280929190818152602001828054610ad590612688565b8015610b205780601f10610af757610100808354040283529160200191610b20565b820191905f5260205f20905b815481529060010190602001808311610b0357829003601f168201915b505050505081526020016001820154815260200160028201548152505081526020019060010190610a79565b505050509050919050565b5f5f5f8381526020019081526020015f2090503373ffffffffffffffffffffffffffffffffffffffff16815f015f9054906101000a900473ffffffffffffffffffffffffffffffffffffffff1673ffffffffffffffffffffffffffffffffffffffff161480610c3457503373ffffffffffffffffffffffffffffffffffffffff16816001015f9054906101000a900473ffffffffffffffffffffffffffffffffffffffff1673ffffffffffffffffffffffffffffffffffffffff16148015610c33575060011515816004015f9054906101000a900460ff161515145b5b610c73576040517f08c379a0000000000000000000000000000000000000000000000000000000008152600401610c6a9061272f565b60405180910390fd5b5f815f015f9054906101000a900473ffffffffffffffffffffffffffffffffffffffff1690505f826001015f9054906101000a900473ffffffffffffffffffffffffffffffffffffffff1690505f5f8581526020019081526020015f205f5f82015f6101000a81549073ffffffffffffffffffffffffffffffffffffffff0219169055600182015f6101000a81549073ffffffffffffffffffffffffffffffffffffffff0219169055600282015f9055600382015f610d329190611b94565b600482015f6101000a81549060ff0219169055600582015f610d549190611bd1565b5050610d9c60015f8473ffffffffffffffffffffffffffffffffffffffff1673ffffffffffffffffffffffffffffffffffffffff1681526020019081526020015f2085611a7b565b5f73ffffffffffffffffffffffffffffffffffffffff168173ffffffffffffffffffffffffffffffffffffffff1614610e1657610e1560025f8373ffffffffffffffffffffffffffffffffffffffff1673ffffffffffffffffffffffffffffffffffffffff1681526020019081526020015f2085611a7b565b5b50505050565b5f5f5f8481526020019081526020015f2090503373ffffffffffffffffffffffffffffffffffffffff16815f015f9054906101000a900473ffffffffffffffffffffffffffffffffffffffff1673ffffffffffffffffffffffffffffffffffffffff1614610ebf576040517f08c379a0000000000000000000000000000000000000000000000000000000008152600401610eb690612797565b60405180910390fd5b80600501805490508210610f08576040517f08c379a0000000000000000000000000000000000000000000000000000000008152600401610eff906127ff565b60405180910390fd5b8060050160018260050180549050610f20919061284a565b81548110610f3157610f306126b8565b5b905f5260205f209060030201816005018381548110610f5357610f526126b8565b5b905f5260205f2090600302015f8201815f019081610f719190612a32565b50600182015481600101556002820154816002015590505080600501805480610f9d57610f9c612b17565b5b600190038181905f5260205f2090600302015f5f82015f610fbe9190611b94565b600182015f9055600282015f905550509055505050565b60605f60025f8473ffffffffffffffffffffffffffffffffffffffff1673ffffffffffffffffffffffffffffffffffffffff1681526020019081526020015f2080548060200260200160405190810160405280929190818152602001828054801561105d57602002820191905f5260205f20905b815481526020019060010190808311611049575b505050505090505f815167ffffffffffffffff8111156110805761107f6122c8565b5b6040519080825280602002602001820160405280156110b957816020015b6110a6611b34565b81526020019060019003908161109e5790505b5090505f5f90505b8251811015611386575f5f8483815181106110df576110de6126b8565b5b602002602001015181526020019081526020015f206040518060c00160405290815f82015f9054906101000a900473ffffffffffffffffffffffffffffffffffffffff1673ffffffffffffffffffffffffffffffffffffffff1673ffffffffffffffffffffffffffffffffffffffff168152602001600182015f9054906101000a900473ffffffffffffffffffffffffffffffffffffffff1673ffffffffffffffffffffffffffffffffffffffff1673ffffffffffffffffffffffffffffffffffffffff168152602001600282015481526020016003820180546111c290612688565b80601f01602080910402602001604051908101604052809291908181526020018280546111ee90612688565b80156112395780601f1061121057610100808354040283529160200191611239565b820191905f5260205f20905b81548152906001019060200180831161121c57829003601f168201915b50505050508152602001600482015f9054906101000a900460ff1615151515815260200160058201805480602002602001604051908101604052809291908181526020015f905b82821015611353578382905f5260205f2090600302016040518060600160405290815f820180546112b090612688565b80601f01602080910402602001604051908101604052809291908181526020018280546112dc90612688565b80156113275780601f106112fe57610100808354040283529160200191611327565b820191905f5260205f20905b81548152906001019060200180831161130a57829003601f168201915b505050505081526020016001820154815260200160028201548152505081526020019060010190611280565b505050508152505082828151811061136e5761136d6126b8565b5b602002602001018190525080806001019150506110c1565b508092505050919050565b5f5f5f8381526020019081526020015f2090505f3073ffffffffffffffffffffffffffffffffffffffff1663ca7dd375846040518263ffffffff1660e01b81526004016113de91906121c6565b602060405180830381865afa1580156113f9573d5f5f3e3d5ffd5b505050506040513d601f19601f8201168201806040525081019061141d9190612b58565b90505f73ffffffffffffffffffffffffffffffffffffffff16826001015f9054906101000a900473ffffffffffffffffffffffffffffffffffffffff1673ffffffffffffffffffffffffffffffffffffffff161461150757816001015f9054906101000a900473ffffffffffffffffffffffffffffffffffffffff1673ffffffffffffffffffffffffffffffffffffffff163373ffffffffffffffffffffffffffffffffffffffff1614611506576040517f08c379a00000000000000000000000000000000000000000000000000000000081526004016114fd90612bf3565b60405180910390fd5b5b8034101561154a576040517f08c379a000000000000000000000000000000000000000000000000000000000815260040161154190612c5b565b60405180910390fd5b6001826004015f6101000a81548160ff021916908315150217905550815f015f9054906101000a900473ffffffffffffffffffffffffffffffffffffffff1673ffffffffffffffffffffffffffffffffffffffff166108fc8290811502906040515f60405180830381858888f193505050501580156115cb573d5f5f3e3d5ffd5b5080341115611624573373ffffffffffffffffffffffffffffffffffffffff166108fc82346115fa919061284a565b90811502906040515f60405180830381858888f19350505050158015611622573d5f5f3e3d5ffd5b505b505050565b5f60035f81548092919061163c90612c79565b9190505590505f5f5f8381526020019081526020015f20905033815f015f6101000a81548173ffffffffffffffffffffffffffffffffffffffff021916908373ffffffffffffffffffffffffffffffffffffffff16021790555081816002018190555082816001015f6101000a81548173ffffffffffffffffffffffffffffffffffffffff021916908373ffffffffffffffffffffffffffffffffffffffff16021790555060025f8473ffffffffffffffffffffffffffffffffffffffff1673ffffffffffffffffffffffffffffffffffffffff1681526020019081526020015f2082908060018154018082558091505060019003905f5260205f20015f9091909190915055848160030190816117539190612cc0565b505f816004015f6101000a81548160ff0219169083151502179055505f5f90505b84518110156118525781600501604051806060016040528087848151811061179f5761179e6126b8565b5b60200260200101515f015181526020018784815181106117c2576117c16126b8565b5b60200260200101516020015181526020018784815181106117e6576117e56126b8565b5b602002602001015160400151815250908060018154018082558091505060019003905f5260205f2090600302015f909190919091505f820151815f01908161182e9190612cc0565b50602082015181600101556040820151816002015550508080600101915050611774565b5060015f3373ffffffffffffffffffffffffffffffffffffffff1673ffffffffffffffffffffffffffffffffffffffff1681526020019081526020015f2082908060018154018082558091505060019003905f5260205f20015f90919091909150555050505050565b5f5f5f5f8481526020019081526020015f2090505f5f90505f5f90505b8260050180549050811015611957578260050181815481106118fd576118fc6126b8565b5b905f5260205f20906003020160020154836005018281548110611923576119226126b8565b5b905f5260205f2090600302016001015461193d9190612d8f565b826119489190612dd0565b915080806001019150506118d8565b508092505050919050565b5f5f5f8681526020019081526020015f2090503373ffffffffffffffffffffffffffffffffffffffff16815f015f9054906101000a900473ffffffffffffffffffffffffffffffffffffffff1673ffffffffffffffffffffffffffffffffffffffff1614611a05576040517f08c379a00000000000000000000000000000000000000000000000000000000081526004016119fc90612797565b60405180910390fd5b80600501604051806060016040528086815260200185815260200184815250908060018154018082558091505060019003905f5260205f2090600302015f909190919091505f820151815f019081611a5d9190612cc0565b50602082015181600101556040820151816002015550505050505050565b5f5f90505b8280549050811015611b2f5781838281548110611aa057611a9f6126b8565b5b905f5260205f20015403611b22578260018480549050611ac0919061284a565b81548110611ad157611ad06126b8565b5b905f5260205f200154838281548110611aed57611aec6126b8565b5b905f5260205f20018190555082805480611b0a57611b09612b17565b5b600190038181905f5260205f20015f90559055611b2f565b8080600101915050611a80565b505050565b6040518060c001604052805f73ffffffffffffffffffffffffffffffffffffffff1681526020015f73ffffffffffffffffffffffffffffffffffffffff1681526020015f8152602001606081526020015f15158152602001606081525090565b508054611ba090612688565b5f825580601f10611bb15750611bce565b601f0160209004905f5260205f2090810190611bcd9190611bf2565b5b50565b5080545f8255600302905f5260205f2090810190611bef9190611c0d565b50565b5b80821115611c09575f815f905550600101611bf3565b5090565b5b80821115611c3c575f5f82015f611c259190611b94565b600182015f9055600282015f905550600301611c0e565b5090565b5f604051905090565b5f5ffd5b5f5ffd5b5f819050919050565b611c6381611c51565b8114611c6d575f5ffd5b50565b5f81359050611c7e81611c5a565b92915050565b5f60208284031215611c9957611c98611c49565b5b5f611ca684828501611c70565b91505092915050565b5f73ffffffffffffffffffffffffffffffffffffffff82169050919050565b5f611cd882611caf565b9050919050565b611ce881611cce565b82525050565b611cf781611c51565b82525050565b5f81519050919050565b5f82825260208201905092915050565b8281835e5f83830152505050565b5f601f19601f8301169050919050565b5f611d3f82611cfd565b611d498185611d07565b9350611d59818560208601611d17565b611d6281611d25565b840191505092915050565b5f8115159050919050565b611d8181611d6d565b82525050565b5f81519050919050565b5f82825260208201905092915050565b5f819050602082019050919050565b5f606083015f8301518482035f860152611dca8282611d35565b9150506020830151611ddf6020860182611cee565b506040830151611df26040860182611cee565b508091505092915050565b5f611e088383611db0565b905092915050565b5f602082019050919050565b5f611e2682611d87565b611e308185611d91565b935083602082028501611e4285611da1565b805f5b85811015611e7d5784840389528151611e5e8582611dfd565b9450611e6983611e10565b925060208a01995050600181019050611e45565b50829750879550505050505092915050565b5f60c083015f830151611ea45f860182611cdf565b506020830151611eb76020860182611cdf565b506040830151611eca6040860182611cee565b5060608301518482036060860152611ee28282611d35565b9150506080830151611ef76080860182611d78565b5060a083015184820360a0860152611f0f8282611e1c565b9150508091505092915050565b5f6020820190508181035f830152611f348184611e8f565b905092915050565b611f4581611cce565b8114611f4f575f5ffd5b50565b5f81359050611f6081611f3c565b92915050565b5f60208284031215611f7b57611f7a611c49565b5b5f611f8884828501611f52565b91505092915050565b5f81519050919050565b5f82825260208201905092915050565b5f819050602082019050919050565b5f60c083015f830151611fcf5f860182611cdf565b506020830151611fe26020860182611cdf565b506040830151611ff56040860182611cee565b506060830151848203606086015261200d8282611d35565b91505060808301516120226080860182611d78565b5060a083015184820360a086015261203a8282611e1c565b9150508091505092915050565b5f6120528383611fba565b905092915050565b5f602082019050919050565b5f61207082611f91565b61207a8185611f9b565b93508360208202850161208c85611fab565b805f5b858110156120c757848403895281516120a88582612047565b94506120b38361205a565b925060208a0199505060018101905061208f565b50829750879550505050505092915050565b5f6020820190508181035f8301526120f18184612066565b905092915050565b61210281611cce565b82525050565b61211181611c51565b82525050565b5f82825260208201905092915050565b5f61213182611cfd565b61213b8185612117565b935061214b818560208601611d17565b61215481611d25565b840191505092915050565b61216881611d6d565b82525050565b5f60a0820190506121815f8301886120f9565b61218e60208301876120f9565b61219b6040830186612108565b81810360608301526121ad8185612127565b90506121bc608083018461215f565b9695505050505050565b5f6020820190506121d95f830184612108565b92915050565b5f82825260208201905092915050565b5f6121f982611d87565b61220381856121df565b93508360208202850161221585611da1565b805f5b8581101561225057848403895281516122318582611dfd565b945061223c83611e10565b925060208a01995050600181019050612218565b50829750879550505050505092915050565b5f6020820190508181035f83015261227a81846121ef565b905092915050565b5f5f6040838503121561229857612297611c49565b5b5f6122a585828601611c70565b92505060206122b685828601611c70565b9150509250929050565b5f5ffd5b5f5ffd5b7f4e487b71000000000000000000000000000000000000000000000000000000005f52604160045260245ffd5b6122fe82611d25565b810181811067ffffffffffffffff8211171561231d5761231c6122c8565b5b80604052505050565b5f61232f611c40565b905061233b82826122f5565b919050565b5f67ffffffffffffffff82111561235a576123596122c8565b5b61236382611d25565b9050602081019050919050565b828183375f83830152505050565b5f61239061238b84612340565b612326565b9050828152602081018484840111156123ac576123ab6122c4565b5b6123b7848285612370565b509392505050565b5f82601f8301126123d3576123d26122c0565b5b81356123e384826020860161237e565b91505092915050565b5f67ffffffffffffffff821115612406576124056122c8565b5b602082029050602081019050919050565b5f5ffd5b5f5ffd5b5f5ffd5b5f606082840312156124385761243761241b565b5b6124426060612326565b90505f82013567ffffffffffffffff8111156124615761246061241f565b5b61246d848285016123bf565b5f83015250602061248084828501611c70565b602083015250604061249484828501611c70565b60408301525092915050565b5f6124b26124ad846123ec565b612326565b905080838252602082019050602084028301858111156124d5576124d4612417565b5b835b8181101561251c57803567ffffffffffffffff8111156124fa576124f96122c0565b5b8086016125078982612423565b855260208501945050506020810190506124d7565b5050509392505050565b5f82601f83011261253a576125396122c0565b5b813561254a8482602086016124a0565b91505092915050565b5f5f5f6060848603121561256a57612569611c49565b5b5f84013567ffffffffffffffff81111561258757612586611c4d565b5b612593868287016123bf565b935050602084013567ffffffffffffffff8111156125b4576125b3611c4d565b5b6125c086828701612526565b92505060406125d186828701611f52565b9150509250925092565b5f5f5f5f608085870312156125f3576125f2611c49565b5b5f61260087828801611c70565b945050602085013567ffffffffffffffff81111561262157612620611c4d565b5b61262d878288016123bf565b935050604061263e87828801611c70565b925050606061264f87828801611c70565b91505092959194509250565b7f4e487b71000000000000000000000000000000000000000000000000000000005f52602260045260245ffd5b5f600282049050600182168061269f57607f821691505b6020821081036126b2576126b161265b565b5b50919050565b7f4e487b71000000000000000000000000000000000000000000000000000000005f52603260045260245ffd5b7f43616e27742064656c65746520696e766f6963650000000000000000000000005f82015250565b5f612719601483612117565b9150612724826126e5565b602082019050919050565b5f6020820190508181035f8301526127468161270d565b9050919050565b7f4e6f7420696e766f696365206f776e65720000000000000000000000000000005f82015250565b5f612781601183612117565b915061278c8261274d565b602082019050919050565b5f6020820190508181035f8301526127ae81612775565b9050919050565b7f496e646578206f7574206f6620626f756e6473000000000000000000000000005f82015250565b5f6127e9601383612117565b91506127f4826127b5565b602082019050919050565b5f6020820190508181035f830152612816816127dd565b9050919050565b7f4e487b71000000000000000000000000000000000000000000000000000000005f52601160045260245ffd5b5f61285482611c51565b915061285f83611c51565b92508282039050818111156128775761287661281d565b5b92915050565b5f8154905061288b81612688565b9050919050565b5f819050815f5260205f209050919050565b5f6020601f8301049050919050565b5f82821b905092915050565b5f600883026128ee7fffffffffffffffffffffffffffffffffffffffffffffffffffffffffffffffff826128b3565b6128f886836128b3565b95508019841693508086168417925050509392505050565b5f819050919050565b5f61293361292e61292984611c51565b612910565b611c51565b9050919050565b5f819050919050565b61294c83612919565b6129606129588261293a565b8484546128bf565b825550505050565b5f5f905090565b612977612968565b612982818484612943565b505050565b5b818110156129a55761299a5f8261296f565b600181019050612988565b5050565b601f8211156129ea576129bb81612892565b6129c4846128a4565b810160208510156129d3578190505b6129e76129df856128a4565b830182612987565b50505b505050565b5f82821c905092915050565b5f612a0a5f19846008026129ef565b1980831691505092915050565b5f612a2283836129fb565b9150826002028217905092915050565b818103612a40575050612b15565b612a498261287d565b67ffffffffffffffff811115612a6257612a616122c8565b5b612a6c8254612688565b612a778282856129a9565b5f601f831160018114612aa4575f8415612a92578287015490505b612a9c8582612a17565b865550612b0e565b601f198416612ab287612892565b9650612abd86612892565b5f5b82811015612ae457848901548255600182019150600185019450602081019050612abf565b86831015612b015784890154612afd601f8916826129fb565b8355505b6001600288020188555050505b5050505050505b565b7f4e487b71000000000000000000000000000000000000000000000000000000005f52603160045260245ffd5b5f81519050612b5281611c5a565b92915050565b5f60208284031215612b6d57612b6c611c49565b5b5f612b7a84828501612b44565b91505092915050565b7f596f7520617265206e6f7420617574686f72697a656420746f207061792074685f8201527f697320696e766f69636500000000000000000000000000000000000000000000602082015250565b5f612bdd602a83612117565b9150612be882612b83565b604082019050919050565b5f6020820190508181035f830152612c0a81612bd1565b9050919050565b7f496e73756666696369656e74207061796d656e740000000000000000000000005f82015250565b5f612c45601483612117565b9150612c5082612c11565b602082019050919050565b5f6020820190508181035f830152612c7281612c39565b9050919050565b5f612c8382611c51565b91507fffffffffffffffffffffffffffffffffffffffffffffffffffffffffffffffff8203612cb557612cb461281d565b5b600182019050919050565b612cc982611cfd565b67ffffffffffffffff811115612ce257612ce16122c8565b5b612cec8254612688565b612cf78282856129a9565b5f60209050601f831160018114612d28575f8415612d16578287015190505b612d208582612a17565b865550612d87565b601f198416612d3686612892565b5f5b82811015612d5d57848901518255600182019150602085019450602081019050612d38565b86831015612d7a5784890151612d76601f8916826129fb565b8355505b6001600288020188555050505b505050505050565b5f612d9982611c51565b9150612da483611c51565b9250828202612db281611c51565b91508282048414831517612dc957612dc861281d565b5b5092915050565b5f612dda82611c51565b9150612de583611c51565b9250828201905080821115612dfd57612dfc61281d565b5b9291505056fea2646970667358221220cd4d76c2ba1519c8f5894935562e0e51908926450ac01300a11880220d6ac7b664736f6c634300081c0033",
  "linkReferences": {},
  "deployedLinkReferences": {},
  "immutableReferences": {},
  "inputSourceName": "project/contracts/Invoice/Invoice.sol",
  "buildInfoId": "solc-0_8_28-5e0625b4bf4545fc09e9d23ed6f56acc7a456667"
}