{
  "_format": "hh3-artifact-1",
  "contractName": "InvoiceManager",
  "sourceName": "contracts/Invoice/Invoice.sol",
  "abi": [
    {
      "inputs": [
        {
          "internalType": "uint256",
          "name": "invoiceId",
          "type": "uint256"
        },
        {
          "internalType": "string",
          "name": "description",
          "type": "string"
        },
        {
          "internalType": "uint256",
          "name": "quantity",
          "type": "uint256"
        },
        {
          "internalType": "uint256",
          "name": "unitPrice",
          "type": "uint256"
        }
      ],
      "name": "addItem",
      "outputs": [],
      "stateMutability": "nonpayable",
      "type": "function"
    },
    {
      "inputs": [
        {
          "internalType": "string",
          "name": "title",
          "type": "string"
        },
        {
          "components": [
            {
              "internalType": "string",
              "name": "description",
              "type": "string"
            },
            {
              "internalType": "uint256",
              "name": "quantity",
              "type": "uint256"
            },
            {
              "internalType": "uint256",
              "name": "unitPrice",
              "type": "uint256"
            }
          ],
          "internalType": "struct InvoiceManager.Item[]",
          "name": "items",
          "type": "tuple[]"
        }
      ],
      "name": "createInvoice",
      "outputs": [],
      "stateMutability": "nonpayable",
      "type": "function"
    },
    {
      "inputs": [
        {
          "internalType": "uint256",
          "name": "invoiceId",
          "type": "uint256"
        }
      ],
      "name": "deleteInvoice",
      "outputs": [],
      "stateMutability": "nonpayable",
      "type": "function"
    },
    {
      "inputs": [
        {
          "internalType": "uint256",
          "name": "invoiceId",
          "type": "uint256"
        }
      ],
      "name": "getInvoice",
      "outputs": [
        {
          "components": [
            {
              "internalType": "address",
              "name": "owner",
              "type": "address"
            },
            {
              "internalType": "uint256",
              "name": "id",
              "type": "uint256"
            },
            {
              "internalType": "string",
              "name": "title",
              "type": "string"
            },
            {
              "internalType": "bool",
              "name": "paid",
              "type": "bool"
            },
            {
              "components": [
                {
                  "internalType": "string",
                  "name": "description",
                  "type": "string"
                },
                {
                  "internalType": "uint256",
                  "name": "quantity",
                  "type": "uint256"
                },
                {
                  "internalType": "uint256",
                  "name": "unitPrice",
                  "type": "uint256"
                }
              ],
              "internalType": "struct InvoiceManager.Item[]",
              "name": "items",
              "type": "tuple[]"
            }
          ],
          "internalType": "struct InvoiceManager.Invoice",
          "name": "",
          "type": "tuple"
        }
      ],
      "stateMutability": "view",
      "type": "function"
    },
    {
      "inputs": [
        {
          "internalType": "address",
          "name": "owner",
          "type": "address"
        }
      ],
      "name": "getInvoicesByOwner",
      "outputs": [
        {
          "components": [
            {
              "internalType": "address",
              "name": "owner",
              "type": "address"
            },
            {
              "internalType": "uint256",
              "name": "id",
              "type": "uint256"
            },
            {
              "internalType": "string",
              "name": "title",
              "type": "string"
            },
            {
              "internalType": "bool",
              "name": "paid",
              "type": "bool"
            },
            {
              "components": [
                {
                  "internalType": "string",
                  "name": "description",
                  "type": "string"
                },
                {
                  "internalType": "uint256",
                  "name": "quantity",
                  "type": "uint256"
                },
                {
                  "internalType": "uint256",
                  "name": "unitPrice",
                  "type": "uint256"
                }
              ],
              "internalType": "struct InvoiceManager.Item[]",
              "name": "items",
              "type": "tuple[]"
            }
          ],
          "internalType": "struct InvoiceManager.Invoice[]",
          "name": "",
          "type": "tuple[]"
        }
      ],
      "stateMutability": "view",
      "type": "function"
    },
    {
      "inputs": [
        {
          "internalType": "uint256",
          "name": "invoiceId",
          "type": "uint256"
        }
      ],
      "name": "getItems",
      "outputs": [
        {
          "components": [
            {
              "internalType": "string",
              "name": "description",
              "type": "string"
            },
            {
              "internalType": "uint256",
              "name": "quantity",
              "type": "uint256"
            },
            {
              "internalType": "uint256",
              "name": "unitPrice",
              "type": "uint256"
            }
          ],
          "internalType": "struct InvoiceManager.Item[]",
          "name": "",
          "type": "tuple[]"
        }
      ],
      "stateMutability": "view",
      "type": "function"
    },
    {
      "inputs": [
        {
          "internalType": "uint256",
          "name": "invoiceId",
          "type": "uint256"
        }
      ],
      "name": "getTotalPrice",
      "outputs": [
        {
          "internalType": "uint256",
          "name": "",
          "type": "uint256"
        }
      ],
      "stateMutability": "view",
      "type": "function"
    },
    {
      "inputs": [
        {
          "internalType": "uint256",
          "name": "",
          "type": "uint256"
        }
      ],
      "name": "invoices",
      "outputs": [
        {
          "internalType": "address",
          "name": "owner",
          "type": "address"
        },
        {
          "internalType": "uint256",
          "name": "id",
          "type": "uint256"
        },
        {
          "internalType": "string",
          "name": "title",
          "type": "string"
        },
        {
          "internalType": "bool",
          "name": "paid",
          "type": "bool"
        }
      ],
      "stateMutability": "view",
      "type": "function"
    },
    {
      "inputs": [],
      "name": "nextInvoiceId",
      "outputs": [
        {
          "internalType": "uint256",
          "name": "",
          "type": "uint256"
        }
      ],
      "stateMutability": "view",
      "type": "function"
    },
    {
      "inputs": [
        {
          "internalType": "uint256",
          "name": "invoiceId",
          "type": "uint256"
        }
      ],
      "name": "payInvoice",
      "outputs": [],
      "stateMutability": "payable",
      "type": "function"
    },
    {
      "inputs": [
        {
          "internalType": "uint256",
          "name": "invoiceId",
          "type": "uint256"
        },
        {
          "internalType": "uint256",
          "name": "index",
          "type": "uint256"
        }
      ],
      "name": "removeItem",
      "outputs": [],
      "stateMutability": "nonpayable",
      "type": "function"
    }
  ],
  "bytecode": "0x6080604052348015600e575f5ffd5b506125118061001c5f395ff3fe60806040526004361061009b575f3560e01c8063796c5e9411610063578063796c5e94146101a857806380c8610f146101e4578063870fc3471461020c578063ac60a6cd14610234578063ca7dd37514610250578063ec67b45d1461028c5761009b565b80633a23cc0a1461009f5780633c195e52146100db57806342e73f9a146101175780634e6d14051461013f5780636ff2a9531461017e575b5f5ffd5b3480156100aa575f5ffd5b506100c560048036038101906100c09190611498565b6102b4565b6040516100d2919061171d565b60405180910390f35b3480156100e6575f5ffd5b5061010160048036038101906100fc9190611767565b6104e5565b60405161010e91906118c7565b60405180910390f35b348015610122575f5ffd5b5061013d60048036038101906101389190611b7a565b61084c565b005b34801561014a575f5ffd5b5061016560048036038101906101609190611498565b610a3a565b6040516101759493929190611c65565b60405180910390f35b348015610189575f5ffd5b50610192610b16565b60405161019f9190611caf565b60405180910390f35b3480156101b3575f5ffd5b506101ce60048036038101906101c99190611498565b610b1c565b6040516101db9190611d4b565b60405180910390f35b3480156101ef575f5ffd5b5061020a60048036038101906102059190611498565b610c2e565b005b348015610217575f5ffd5b50610232600480360381019061022d9190611d6b565b610e3b565b005b61024e60048036038101906102499190611498565b610ff4565b005b34801561025b575f5ffd5b5061027660048036038101906102719190611498565b6111a4565b6040516102839190611caf565b60405180910390f35b348015610297575f5ffd5b506102b260048036038101906102ad9190611da9565b61124b565b005b6102bc611364565b5f5f8381526020019081526020015f206040518060a00160405290815f82015f9054906101000a900473ffffffffffffffffffffffffffffffffffffffff1673ffffffffffffffffffffffffffffffffffffffff1673ffffffffffffffffffffffffffffffffffffffff1681526020016001820154815260200160028201805461034590611e56565b80601f016020809104026020016040519081016040528092919081815260200182805461037190611e56565b80156103bc5780601f10610393576101008083540402835291602001916103bc565b820191905f5260205f20905b81548152906001019060200180831161039f57829003601f168201915b50505050508152602001600382015f9054906101000a900460ff1615151515815260200160048201805480602002602001604051908101604052809291908181526020015f905b828210156104d6578382905f5260205f2090600302016040518060600160405290815f8201805461043390611e56565b80601f016020809104026020016040519081016040528092919081815260200182805461045f90611e56565b80156104aa5780601f10610481576101008083540402835291602001916104aa565b820191905f5260205f20905b81548152906001019060200180831161048d57829003601f168201915b505050505081526020016001820154815260200160028201548152505081526020019060010190610403565b50505050815250509050919050565b60605f60015f8473ffffffffffffffffffffffffffffffffffffffff1673ffffffffffffffffffffffffffffffffffffffff1681526020019081526020015f2080548060200260200160405190810160405280929190818152602001828054801561056d57602002820191905f5260205f20905b815481526020019060010190808311610559575b505050505090505f815167ffffffffffffffff8111156105905761058f6118ef565b5b6040519080825280602002602001820160405280156105c957816020015b6105b6611364565b8152602001906001900390816105ae5790505b5090505f5f90505b8251811015610841575f5f8483815181106105ef576105ee611e86565b5b602002602001015181526020019081526020015f206040518060a00160405290815f82015f9054906101000a900473ffffffffffffffffffffffffffffffffffffffff1673ffffffffffffffffffffffffffffffffffffffff1673ffffffffffffffffffffffffffffffffffffffff1681526020016001820154815260200160028201805461067d90611e56565b80601f01602080910402602001604051908101604052809291908181526020018280546106a990611e56565b80156106f45780601f106106cb576101008083540402835291602001916106f4565b820191905f5260205f20905b8154815290600101906020018083116106d757829003601f168201915b50505050508152602001600382015f9054906101000a900460ff1615151515815260200160048201805480602002602001604051908101604052809291908181526020015f905b8282101561080e578382905f5260205f2090600302016040518060600160405290815f8201805461076b90611e56565b80601f016020809104026020016040519081016040528092919081815260200182805461079790611e56565b80156107e25780601f106107b9576101008083540402835291602001916107e2565b820191905f5260205f20905b8154815290600101906020018083116107c557829003601f168201915b50505050508152602001600182015481526020016002820154815250508152602001906001019061073b565b505050508152505082828151811061082957610828611e86565b5b602002602001018190525080806001019150506105d1565b508092505050919050565b5f60025f81548092919061085f90611ee0565b9190505590505f5f5f8381526020019081526020015f20905033815f015f6101000a81548173ffffffffffffffffffffffffffffffffffffffff021916908373ffffffffffffffffffffffffffffffffffffffff160217905550818160010181905550838160020190816108d391906120c7565b505f816003015f6101000a81548160ff0219169083151502179055505f5f90505b83518110156109d25781600401604051806060016040528086848151811061091f5761091e611e86565b5b60200260200101515f0151815260200186848151811061094257610941611e86565b5b602002602001015160200151815260200186848151811061096657610965611e86565b5b602002602001015160400151815250908060018154018082558091505060019003905f5260205f2090600302015f909190919091505f820151815f0190816109ae91906120c7565b506020820151816001015560408201518160020155505080806001019150506108f4565b5060015f3373ffffffffffffffffffffffffffffffffffffffff1673ffffffffffffffffffffffffffffffffffffffff1681526020019081526020015f2082908060018154018082558091505060019003905f5260205f20015f909190919091505550505050565b5f602052805f5260405f205f91509050805f015f9054906101000a900473ffffffffffffffffffffffffffffffffffffffff1690806001015490806002018054610a8390611e56565b80601f0160208091040260200160405190810160405280929190818152602001828054610aaf90611e56565b8015610afa5780601f10610ad157610100808354040283529160200191610afa565b820191905f5260205f20905b815481529060010190602001808311610add57829003601f168201915b505050505090806003015f9054906101000a900460ff16905084565b60025481565b60605f5f8381526020019081526020015f20600401805480602002602001604051908101604052809291908181526020015f905b82821015610c23578382905f5260205f2090600302016040518060600160405290815f82018054610b8090611e56565b80601f0160208091040260200160405190810160405280929190818152602001828054610bac90611e56565b8015610bf75780601f10610bce57610100808354040283529160200191610bf7565b820191905f5260205f20905b815481529060010190602001808311610bda57829003601f168201915b505050505081526020016001820154815260200160028201548152505081526020019060010190610b50565b505050509050919050565b5f5f5f8381526020019081526020015f2090503373ffffffffffffffffffffffffffffffffffffffff16815f015f9054906101000a900473ffffffffffffffffffffffffffffffffffffffff1673ffffffffffffffffffffffffffffffffffffffff1614610cd1576040517f08c379a0000000000000000000000000000000000000000000000000000000008152600401610cc8906121e0565b60405180910390fd5b5f5f8381526020019081526020015f205f5f82015f6101000a81549073ffffffffffffffffffffffffffffffffffffffff0219169055600182015f9055600282015f610d1d91906113a8565b600382015f6101000a81549060ff0219169055600482015f610d3f91906113e5565b50505f60015f3373ffffffffffffffffffffffffffffffffffffffff1673ffffffffffffffffffffffffffffffffffffffff1681526020019081526020015f2090505f5f90505b8180549050811015610e355783828281548110610da657610da5611e86565b5b905f5260205f20015403610e28578160018380549050610dc691906121fe565b81548110610dd757610dd6611e86565b5b905f5260205f200154828281548110610df357610df2611e86565b5b905f5260205f20018190555081805480610e1057610e0f612231565b5b600190038181905f5260205f20015f90559055610e35565b8080600101915050610d86565b50505050565b5f5f5f8481526020019081526020015f2090503373ffffffffffffffffffffffffffffffffffffffff16815f015f9054906101000a900473ffffffffffffffffffffffffffffffffffffffff1673ffffffffffffffffffffffffffffffffffffffff1614610ede576040517f08c379a0000000000000000000000000000000000000000000000000000000008152600401610ed5906121e0565b60405180910390fd5b80600401805490508210610f27576040517f08c379a0000000000000000000000000000000000000000000000000000000008152600401610f1e906122a8565b60405180910390fd5b8060040160018260040180549050610f3f91906121fe565b81548110610f5057610f4f611e86565b5b905f5260205f209060030201816004018381548110610f7257610f71611e86565b5b905f5260205f2090600302015f8201815f019081610f9091906122db565b50600182015481600101556002820154816002015590505080600401805480610fbc57610fbb612231565b5b600190038181905f5260205f2090600302015f5f82015f610fdd91906113a8565b600182015f9055600282015f905550509055505050565b5f5f5f8381526020019081526020015f2090505f3073ffffffffffffffffffffffffffffffffffffffff1663ca7dd375846040518263ffffffff1660e01b81526004016110419190611caf565b602060405180830381865afa15801561105c573d5f5f3e3d5ffd5b505050506040513d601f19601f8201168201806040525081019061108091906123d4565b9050803410156110c5576040517f08c379a00000000000000000000000000000000000000000000000000000000081526004016110bc90612449565b60405180910390fd5b6001826003015f6101000a81548160ff021916908315150217905550815f015f9054906101000a900473ffffffffffffffffffffffffffffffffffffffff1673ffffffffffffffffffffffffffffffffffffffff166108fc8290811502906040515f60405180830381858888f19350505050158015611146573d5f5f3e3d5ffd5b508034111561119f573373ffffffffffffffffffffffffffffffffffffffff166108fc823461117591906121fe565b90811502906040515f60405180830381858888f1935050505015801561119d573d5f5f3e3d5ffd5b505b505050565b5f5f5f5f8481526020019081526020015f2090505f5f90505f5f90505b8260040180549050811015611240578260040181815481106111e6576111e5611e86565b5b905f5260205f2090600302016002015483600401828154811061120c5761120b611e86565b5b905f5260205f209060030201600101546112269190612467565b8261123191906124a8565b915080806001019150506111c1565b508092505050919050565b5f5f5f8681526020019081526020015f2090503373ffffffffffffffffffffffffffffffffffffffff16815f015f9054906101000a900473ffffffffffffffffffffffffffffffffffffffff1673ffffffffffffffffffffffffffffffffffffffff16146112ee576040517f08c379a00000000000000000000000000000000000000000000000000000000081526004016112e5906121e0565b60405180910390fd5b80600401604051806060016040528086815260200185815260200184815250908060018154018082558091505060019003905f5260205f2090600302015f909190919091505f820151815f01908161134691906120c7565b50602082015181600101556040820151816002015550505050505050565b6040518060a001604052805f73ffffffffffffffffffffffffffffffffffffffff1681526020015f8152602001606081526020015f15158152602001606081525090565b5080546113b490611e56565b5f825580601f106113c557506113e2565b601f0160209004905f5260205f20908101906113e19190611406565b5b50565b5080545f8255600302905f5260205f20908101906114039190611421565b50565b5b8082111561141d575f815f905550600101611407565b5090565b5b80821115611450575f5f82015f61143991906113a8565b600182015f9055600282015f905550600301611422565b5090565b5f604051905090565b5f5ffd5b5f5ffd5b5f819050919050565b61147781611465565b8114611481575f5ffd5b50565b5f813590506114928161146e565b92915050565b5f602082840312156114ad576114ac61145d565b5b5f6114ba84828501611484565b91505092915050565b5f73ffffffffffffffffffffffffffffffffffffffff82169050919050565b5f6114ec826114c3565b9050919050565b6114fc816114e2565b82525050565b61150b81611465565b82525050565b5f81519050919050565b5f82825260208201905092915050565b8281835e5f83830152505050565b5f601f19601f8301169050919050565b5f61155382611511565b61155d818561151b565b935061156d81856020860161152b565b61157681611539565b840191505092915050565b5f8115159050919050565b61159581611581565b82525050565b5f81519050919050565b5f82825260208201905092915050565b5f819050602082019050919050565b5f606083015f8301518482035f8601526115de8282611549565b91505060208301516115f36020860182611502565b5060408301516116066040860182611502565b508091505092915050565b5f61161c83836115c4565b905092915050565b5f602082019050919050565b5f61163a8261159b565b61164481856115a5565b935083602082028501611656856115b5565b805f5b8581101561169157848403895281516116728582611611565b945061167d83611624565b925060208a01995050600181019050611659565b50829750879550505050505092915050565b5f60a083015f8301516116b85f8601826114f3565b5060208301516116cb6020860182611502565b50604083015184820360408601526116e38282611549565b91505060608301516116f8606086018261158c565b50608083015184820360808601526117108282611630565b9150508091505092915050565b5f6020820190508181035f83015261173581846116a3565b905092915050565b611746816114e2565b8114611750575f5ffd5b50565b5f813590506117618161173d565b92915050565b5f6020828403121561177c5761177b61145d565b5b5f61178984828501611753565b91505092915050565b5f81519050919050565b5f82825260208201905092915050565b5f819050602082019050919050565b5f60a083015f8301516117d05f8601826114f3565b5060208301516117e36020860182611502565b50604083015184820360408601526117fb8282611549565b9150506060830151611810606086018261158c565b50608083015184820360808601526118288282611630565b9150508091505092915050565b5f61184083836117bb565b905092915050565b5f602082019050919050565b5f61185e82611792565b611868818561179c565b93508360208202850161187a856117ac565b805f5b858110156118b557848403895281516118968582611835565b94506118a183611848565b925060208a0199505060018101905061187d565b50829750879550505050505092915050565b5f6020820190508181035f8301526118df8184611854565b905092915050565b5f5ffd5b5f5ffd5b7f4e487b71000000000000000000000000000000000000000000000000000000005f52604160045260245ffd5b61192582611539565b810181811067ffffffffffffffff82111715611944576119436118ef565b5b80604052505050565b5f611956611454565b9050611962828261191c565b919050565b5f67ffffffffffffffff821115611981576119806118ef565b5b61198a82611539565b9050602081019050919050565b828183375f83830152505050565b5f6119b76119b284611967565b61194d565b9050828152602081018484840111156119d3576119d26118eb565b5b6119de848285611997565b509392505050565b5f82601f8301126119fa576119f96118e7565b5b8135611a0a8482602086016119a5565b91505092915050565b5f67ffffffffffffffff821115611a2d57611a2c6118ef565b5b602082029050602081019050919050565b5f5ffd5b5f5ffd5b5f5ffd5b5f60608284031215611a5f57611a5e611a42565b5b611a69606061194d565b90505f82013567ffffffffffffffff811115611a8857611a87611a46565b5b611a94848285016119e6565b5f830152506020611aa784828501611484565b6020830152506040611abb84828501611484565b60408301525092915050565b5f611ad9611ad484611a13565b61194d565b90508083825260208201905060208402830185811115611afc57611afb611a3e565b5b835b81811015611b4357803567ffffffffffffffff811115611b2157611b206118e7565b5b808601611b2e8982611a4a565b85526020850194505050602081019050611afe565b5050509392505050565b5f82601f830112611b6157611b606118e7565b5b8135611b71848260208601611ac7565b91505092915050565b5f5f60408385031215611b9057611b8f61145d565b5b5f83013567ffffffffffffffff811115611bad57611bac611461565b5b611bb9858286016119e6565b925050602083013567ffffffffffffffff811115611bda57611bd9611461565b5b611be685828601611b4d565b9150509250929050565b611bf9816114e2565b82525050565b611c0881611465565b82525050565b5f82825260208201905092915050565b5f611c2882611511565b611c328185611c0e565b9350611c4281856020860161152b565b611c4b81611539565b840191505092915050565b611c5f81611581565b82525050565b5f608082019050611c785f830187611bf0565b611c856020830186611bff565b8181036040830152611c978185611c1e565b9050611ca66060830184611c56565b95945050505050565b5f602082019050611cc25f830184611bff565b92915050565b5f82825260208201905092915050565b5f611ce28261159b565b611cec8185611cc8565b935083602082028501611cfe856115b5565b805f5b85811015611d395784840389528151611d1a8582611611565b9450611d2583611624565b925060208a01995050600181019050611d01565b50829750879550505050505092915050565b5f6020820190508181035f830152611d638184611cd8565b905092915050565b5f5f60408385031215611d8157611d8061145d565b5b5f611d8e85828601611484565b9250506020611d9f85828601611484565b9150509250929050565b5f5f5f5f60808587031215611dc157611dc061145d565b5b5f611dce87828801611484565b945050602085013567ffffffffffffffff811115611def57611dee611461565b5b611dfb878288016119e6565b9350506040611e0c87828801611484565b9250506060611e1d87828801611484565b91505092959194509250565b7f4e487b71000000000000000000000000000000000000000000000000000000005f52602260045260245ffd5b5f6002820490506001821680611e6d57607f821691505b602082108103611e8057611e7f611e29565b5b50919050565b7f4e487b71000000000000000000000000000000000000000000000000000000005f52603260045260245ffd5b7f4e487b71000000000000000000000000000000000000000000000000000000005f52601160045260245ffd5b5f611eea82611465565b91507fffffffffffffffffffffffffffffffffffffffffffffffffffffffffffffffff8203611f1c57611f1b611eb3565b5b600182019050919050565b5f819050815f5260205f209050919050565b5f6020601f8301049050919050565b5f82821b905092915050565b5f60088302611f837fffffffffffffffffffffffffffffffffffffffffffffffffffffffffffffffff82611f48565b611f8d8683611f48565b95508019841693508086168417925050509392505050565b5f819050919050565b5f611fc8611fc3611fbe84611465565b611fa5565b611465565b9050919050565b5f819050919050565b611fe183611fae565b611ff5611fed82611fcf565b848454611f54565b825550505050565b5f5f905090565b61200c611ffd565b612017818484611fd8565b505050565b5b8181101561203a5761202f5f82612004565b60018101905061201d565b5050565b601f82111561207f5761205081611f27565b61205984611f39565b81016020851015612068578190505b61207c61207485611f39565b83018261201c565b50505b505050565b5f82821c905092915050565b5f61209f5f1984600802612084565b1980831691505092915050565b5f6120b78383612090565b9150826002028217905092915050565b6120d082611511565b67ffffffffffffffff8111156120e9576120e86118ef565b5b6120f38254611e56565b6120fe82828561203e565b5f60209050601f83116001811461212f575f841561211d578287015190505b61212785826120ac565b86555061218e565b601f19841661213d86611f27565b5f5b828110156121645784890151825560018201915060208501945060208101905061213f565b86831015612181578489015161217d601f891682612090565b8355505b6001600288020188555050505b505050505050565b7f4e6f7420696e766f696365206f776e65720000000000000000000000000000005f82015250565b5f6121ca601183611c0e565b91506121d582612196565b602082019050919050565b5f6020820190508181035f8301526121f7816121be565b9050919050565b5f61220882611465565b915061221383611465565b925082820390508181111561222b5761222a611eb3565b5b92915050565b7f4e487b71000000000000000000000000000000000000000000000000000000005f52603160045260245ffd5b7f496e646578206f7574206f6620626f756e6473000000000000000000000000005f82015250565b5f612292601383611c0e565b915061229d8261225e565b602082019050919050565b5f6020820190508181035f8301526122bf81612286565b9050919050565b5f815490506122d481611e56565b9050919050565b8181036122e95750506123be565b6122f2826122c6565b67ffffffffffffffff81111561230b5761230a6118ef565b5b6123158254611e56565b61232082828561203e565b5f601f83116001811461234d575f841561233b578287015490505b61234585826120ac565b8655506123b7565b601f19841661235b87611f27565b965061236686611f27565b5f5b8281101561238d57848901548255600182019150600185019450602081019050612368565b868310156123aa57848901546123a6601f891682612090565b8355505b6001600288020188555050505b5050505050505b565b5f815190506123ce8161146e565b92915050565b5f602082840312156123e9576123e861145d565b5b5f6123f6848285016123c0565b91505092915050565b7f496e73756666696369656e74207061796d656e740000000000000000000000005f82015250565b5f612433601483611c0e565b915061243e826123ff565b602082019050919050565b5f6020820190508181035f83015261246081612427565b9050919050565b5f61247182611465565b915061247c83611465565b925082820261248a81611465565b915082820484148315176124a1576124a0611eb3565b5b5092915050565b5f6124b282611465565b91506124bd83611465565b92508282019050808211156124d5576124d4611eb3565b5b9291505056fea26469706673582212203827869139758273bf4d7918092cc638c73ec585cf7c917507965169f13add7364736f6c634300081c0033",
  "linkReferences": {},
  "deployedLinkReferences": {},
  "immutableReferences": {},
  "inputSourceName": "project/contracts/Invoice/Invoice.sol",
  "buildInfoId": "solc-0_8_28-81aa9ea3a6d5dcd158e6b9fb2c66244b61a78342"
}