{
  "_format": "hh3-artifact-1",
  "contractName": "InvoiceManager",
  "sourceName": "contracts/Invoice/Invoice.sol",
  "abi": [
    {
      "inputs": [],
      "name": "ReentrancyGuardReentrantCall",
      "type": "error"
    },
    {
      "inputs": [
        {
          "internalType": "uint256",
          "name": "invoiceId",
          "type": "uint256"
        },
        {
          "internalType": "string",
          "name": "description",
          "type": "string"
        },
        {
          "internalType": "uint256",
          "name": "quantity",
          "type": "uint256"
        },
        {
          "internalType": "uint256",
          "name": "unitPrice",
          "type": "uint256"
        }
      ],
      "name": "addItem",
      "outputs": [],
      "stateMutability": "nonpayable",
      "type": "function"
    },
    {
      "inputs": [
        {
          "internalType": "string",
          "name": "title",
          "type": "string"
        },
        {
          "components": [
            {
              "internalType": "string",
              "name": "description",
              "type": "string"
            },
            {
              "internalType": "uint256",
              "name": "quantity",
              "type": "uint256"
            },
            {
              "internalType": "uint256",
              "name": "unitPrice",
              "type": "uint256"
            }
          ],
          "internalType": "struct InvoiceManager.Item[]",
          "name": "items",
          "type": "tuple[]"
        },
        {
          "internalType": "address",
          "name": "payer",
          "type": "address"
        }
      ],
      "name": "createInvoice",
      "outputs": [],
      "stateMutability": "nonpayable",
      "type": "function"
    },
    {
      "inputs": [
        {
          "internalType": "uint256",
          "name": "invoiceId",
          "type": "uint256"
        }
      ],
      "name": "deleteInvoice",
      "outputs": [],
      "stateMutability": "nonpayable",
      "type": "function"
    },
    {
      "inputs": [
        {
          "internalType": "address",
          "name": "attributedAddress",
          "type": "address"
        }
      ],
      "name": "getAttributedInvoice",
      "outputs": [
        {
          "components": [
            {
              "internalType": "address",
              "name": "owner",
              "type": "address"
            },
            {
              "internalType": "address",
              "name": "payer",
              "type": "address"
            },
            {
              "internalType": "uint256",
              "name": "id",
              "type": "uint256"
            },
            {
              "internalType": "string",
              "name": "title",
              "type": "string"
            },
            {
              "internalType": "bool",
              "name": "paid",
              "type": "bool"
            },
            {
              "components": [
                {
                  "internalType": "string",
                  "name": "description",
                  "type": "string"
                },
                {
                  "internalType": "uint256",
                  "name": "quantity",
                  "type": "uint256"
                },
                {
                  "internalType": "uint256",
                  "name": "unitPrice",
                  "type": "uint256"
                }
              ],
              "internalType": "struct InvoiceManager.Item[]",
              "name": "items",
              "type": "tuple[]"
            }
          ],
          "internalType": "struct InvoiceManager.Invoice[]",
          "name": "",
          "type": "tuple[]"
        }
      ],
      "stateMutability": "view",
      "type": "function"
    },
    {
      "inputs": [
        {
          "internalType": "uint256",
          "name": "invoiceId",
          "type": "uint256"
        }
      ],
      "name": "getInvoice",
      "outputs": [
        {
          "components": [
            {
              "internalType": "address",
              "name": "owner",
              "type": "address"
            },
            {
              "internalType": "address",
              "name": "payer",
              "type": "address"
            },
            {
              "internalType": "uint256",
              "name": "id",
              "type": "uint256"
            },
            {
              "internalType": "string",
              "name": "title",
              "type": "string"
            },
            {
              "internalType": "bool",
              "name": "paid",
              "type": "bool"
            },
            {
              "components": [
                {
                  "internalType": "string",
                  "name": "description",
                  "type": "string"
                },
                {
                  "internalType": "uint256",
                  "name": "quantity",
                  "type": "uint256"
                },
                {
                  "internalType": "uint256",
                  "name": "unitPrice",
                  "type": "uint256"
                }
              ],
              "internalType": "struct InvoiceManager.Item[]",
              "name": "items",
              "type": "tuple[]"
            }
          ],
          "internalType": "struct InvoiceManager.Invoice",
          "name": "",
          "type": "tuple"
        }
      ],
      "stateMutability": "view",
      "type": "function"
    },
    {
      "inputs": [
        {
          "internalType": "address",
          "name": "owner",
          "type": "address"
        }
      ],
      "name": "getInvoicesByOwner",
      "outputs": [
        {
          "components": [
            {
              "internalType": "address",
              "name": "owner",
              "type": "address"
            },
            {
              "internalType": "address",
              "name": "payer",
              "type": "address"
            },
            {
              "internalType": "uint256",
              "name": "id",
              "type": "uint256"
            },
            {
              "internalType": "string",
              "name": "title",
              "type": "string"
            },
            {
              "internalType": "bool",
              "name": "paid",
              "type": "bool"
            },
            {
              "components": [
                {
                  "internalType": "string",
                  "name": "description",
                  "type": "string"
                },
                {
                  "internalType": "uint256",
                  "name": "quantity",
                  "type": "uint256"
                },
                {
                  "internalType": "uint256",
                  "name": "unitPrice",
                  "type": "uint256"
                }
              ],
              "internalType": "struct InvoiceManager.Item[]",
              "name": "items",
              "type": "tuple[]"
            }
          ],
          "internalType": "struct InvoiceManager.Invoice[]",
          "name": "",
          "type": "tuple[]"
        }
      ],
      "stateMutability": "view",
      "type": "function"
    },
    {
      "inputs": [
        {
          "internalType": "uint256",
          "name": "invoiceId",
          "type": "uint256"
        }
      ],
      "name": "getItems",
      "outputs": [
        {
          "components": [
            {
              "internalType": "string",
              "name": "description",
              "type": "string"
            },
            {
              "internalType": "uint256",
              "name": "quantity",
              "type": "uint256"
            },
            {
              "internalType": "uint256",
              "name": "unitPrice",
              "type": "uint256"
            }
          ],
          "internalType": "struct InvoiceManager.Item[]",
          "name": "",
          "type": "tuple[]"
        }
      ],
      "stateMutability": "view",
      "type": "function"
    },
    {
      "inputs": [
        {
          "internalType": "uint256",
          "name": "invoiceId",
          "type": "uint256"
        }
      ],
      "name": "getTotalPrice",
      "outputs": [
        {
          "internalType": "uint256",
          "name": "",
          "type": "uint256"
        }
      ],
      "stateMutability": "view",
      "type": "function"
    },
    {
      "inputs": [
        {
          "internalType": "uint256",
          "name": "",
          "type": "uint256"
        }
      ],
      "name": "invoices",
      "outputs": [
        {
          "internalType": "address",
          "name": "owner",
          "type": "address"
        },
        {
          "internalType": "address",
          "name": "payer",
          "type": "address"
        },
        {
          "internalType": "uint256",
          "name": "id",
          "type": "uint256"
        },
        {
          "internalType": "string",
          "name": "title",
          "type": "string"
        },
        {
          "internalType": "bool",
          "name": "paid",
          "type": "bool"
        }
      ],
      "stateMutability": "view",
      "type": "function"
    },
    {
      "inputs": [],
      "name": "nextInvoiceId",
      "outputs": [
        {
          "internalType": "uint256",
          "name": "",
          "type": "uint256"
        }
      ],
      "stateMutability": "view",
      "type": "function"
    },
    {
      "inputs": [
        {
          "internalType": "uint256",
          "name": "invoiceId",
          "type": "uint256"
        }
      ],
      "name": "payInvoice",
      "outputs": [],
      "stateMutability": "payable",
      "type": "function"
    },
    {
      "inputs": [
        {
          "internalType": "uint256",
          "name": "invoiceId",
          "type": "uint256"
        },
        {
          "internalType": "uint256",
          "name": "index",
          "type": "uint256"
        }
      ],
      "name": "removeItem",
      "outputs": [],
      "stateMutability": "nonpayable",
      "type": "function"
    }
  ],
  "bytecode": "0x6080604052348015600e575f5ffd5b5060015f81905550613462806100235f395ff3fe6080604052600436106100a6575f3560e01c8063870fc34711610063578063870fc347146101f057806389ef682714610218578063ac60a6cd14610254578063b8e524e214610270578063ca7dd37514610298578063ec67b45d146102d4576100a6565b80633a23cc0a146100aa5780633c195e52146100e65780634e6d1405146101225780636ff2a95314610162578063796c5e941461018c57806380c8610f146101c8575b5f5ffd5b3480156100b5575f5ffd5b506100d060048036038101906100cb919061210b565b6102fc565b6040516100dd91906123a3565b60405180910390f35b3480156100f1575f5ffd5b5061010c600480360381019061010791906123ed565b610583565b6040516101199190612560565b60405180910390f35b34801561012d575f5ffd5b506101486004803603810190610143919061210b565b610940565b6040516101599594939291906125f5565b60405180910390f35b34801561016d575f5ffd5b50610176610a42565b604051610183919061264d565b60405180910390f35b348015610197575f5ffd5b506101b260048036038101906101ad919061210b565b610a48565b6040516101bf91906126e9565b60405180910390f35b3480156101d3575f5ffd5b506101ee60048036038101906101e9919061210b565b610b5b565b005b3480156101fb575f5ffd5b5061021660048036038101906102119190612709565b610eb2565b005b348015610223575f5ffd5b5061023e600480360381019061023991906123ed565b61114d565b60405161024b9190612560565b60405180910390f35b61026e6004803603810190610269919061210b565b61150a565b005b34801561027b575f5ffd5b50610296600480360381019061029191906129da565b6118ef565b005b3480156102a3575f5ffd5b506102be60048036038101906102b9919061210b565b611b82565b6040516102cb919061264d565b60405180910390f35b3480156102df575f5ffd5b506102fa60048036038101906102f59190612a62565b611cba565b005b610304611fbb565b60015f8381526020019081526020015f206040518060c00160405290815f82015f9054906101000a900473ffffffffffffffffffffffffffffffffffffffff1673ffffffffffffffffffffffffffffffffffffffff1673ffffffffffffffffffffffffffffffffffffffff168152602001600182015f9054906101000a900473ffffffffffffffffffffffffffffffffffffffff1673ffffffffffffffffffffffffffffffffffffffff1673ffffffffffffffffffffffffffffffffffffffff168152602001600282015481526020016003820180546103e390612b0f565b80601f016020809104026020016040519081016040528092919081815260200182805461040f90612b0f565b801561045a5780601f106104315761010080835404028352916020019161045a565b820191905f5260205f20905b81548152906001019060200180831161043d57829003601f168201915b50505050508152602001600482015f9054906101000a900460ff1615151515815260200160058201805480602002602001604051908101604052809291908181526020015f905b82821015610574578382905f5260205f2090600302016040518060600160405290815f820180546104d190612b0f565b80601f01602080910402602001604051908101604052809291908181526020018280546104fd90612b0f565b80156105485780601f1061051f57610100808354040283529160200191610548565b820191905f5260205f20905b81548152906001019060200180831161052b57829003601f168201915b5050505050815260200160018201548152602001600282015481525050815260200190600101906104a1565b50505050815250509050919050565b60605f60025f8473ffffffffffffffffffffffffffffffffffffffff1673ffffffffffffffffffffffffffffffffffffffff1681526020019081526020015f2080548060200260200160405190810160405280929190818152602001828054801561060b57602002820191905f5260205f20905b8154815260200190600101908083116105f7575b505050505090505f815167ffffffffffffffff81111561062e5761062d61274f565b5b60405190808252806020026020018201604052801561066757816020015b610654611fbb565b81526020019060019003908161064c5790505b5090505f5f90505b82518110156109355760015f84838151811061068e5761068d612b3f565b5b602002602001015181526020019081526020015f206040518060c00160405290815f82015f9054906101000a900473ffffffffffffffffffffffffffffffffffffffff1673ffffffffffffffffffffffffffffffffffffffff1673ffffffffffffffffffffffffffffffffffffffff168152602001600182015f9054906101000a900473ffffffffffffffffffffffffffffffffffffffff1673ffffffffffffffffffffffffffffffffffffffff1673ffffffffffffffffffffffffffffffffffffffff1681526020016002820154815260200160038201805461077190612b0f565b80601f016020809104026020016040519081016040528092919081815260200182805461079d90612b0f565b80156107e85780601f106107bf576101008083540402835291602001916107e8565b820191905f5260205f20905b8154815290600101906020018083116107cb57829003601f168201915b50505050508152602001600482015f9054906101000a900460ff1615151515815260200160058201805480602002602001604051908101604052809291908181526020015f905b82821015610902578382905f5260205f2090600302016040518060600160405290815f8201805461085f90612b0f565b80601f016020809104026020016040519081016040528092919081815260200182805461088b90612b0f565b80156108d65780601f106108ad576101008083540402835291602001916108d6565b820191905f5260205f20905b8154815290600101906020018083116108b957829003601f168201915b50505050508152602001600182015481526020016002820154815250508152602001906001019061082f565b505050508152505082828151811061091d5761091c612b3f565b5b6020026020010181905250808060010191505061066f565b508092505050919050565b6001602052805f5260405f205f91509050805f015f9054906101000a900473ffffffffffffffffffffffffffffffffffffffff1690806001015f9054906101000a900473ffffffffffffffffffffffffffffffffffffffff16908060020154908060030180546109af90612b0f565b80601f01602080910402602001604051908101604052809291908181526020018280546109db90612b0f565b8015610a265780601f106109fd57610100808354040283529160200191610a26565b820191905f5260205f20905b815481529060010190602001808311610a0957829003601f168201915b505050505090806004015f9054906101000a900460ff16905085565b60045481565b606060015f8381526020019081526020015f20600501805480602002602001604051908101604052809291908181526020015f905b82821015610b50578382905f5260205f2090600302016040518060600160405290815f82018054610aad90612b0f565b80601f0160208091040260200160405190810160405280929190818152602001828054610ad990612b0f565b8015610b245780601f10610afb57610100808354040283529160200191610b24565b820191905f5260205f20905b815481529060010190602001808311610b0757829003601f168201915b505050505081526020016001820154815260200160028201548152505081526020019060010190610a7d565b505050509050919050565b5f60015f8381526020019081526020015f2090505f73ffffffffffffffffffffffffffffffffffffffff16815f015f9054906101000a900473ffffffffffffffffffffffffffffffffffffffff1673ffffffffffffffffffffffffffffffffffffffff1603610bff576040517f08c379a0000000000000000000000000000000000000000000000000000000008152600401610bf690612bb6565b60405180910390fd5b3373ffffffffffffffffffffffffffffffffffffffff16815f015f9054906101000a900473ffffffffffffffffffffffffffffffffffffffff1673ffffffffffffffffffffffffffffffffffffffff161480610cc957503373ffffffffffffffffffffffffffffffffffffffff16816001015f9054906101000a900473ffffffffffffffffffffffffffffffffffffffff1673ffffffffffffffffffffffffffffffffffffffff16148015610cc8575060011515816004015f9054906101000a900460ff161515145b5b610d08576040517f08c379a0000000000000000000000000000000000000000000000000000000008152600401610cff90612c1e565b60405180910390fd5b5f815f015f9054906101000a900473ffffffffffffffffffffffffffffffffffffffff1690505f826001015f9054906101000a900473ffffffffffffffffffffffffffffffffffffffff16905060015f8581526020019081526020015f205f5f82015f6101000a81549073ffffffffffffffffffffffffffffffffffffffff0219169055600182015f6101000a81549073ffffffffffffffffffffffffffffffffffffffff0219169055600282015f9055600382015f610dc8919061201b565b600482015f6101000a81549060ff0219169055600582015f610dea9190612058565b5050610e3260025f8473ffffffffffffffffffffffffffffffffffffffff1673ffffffffffffffffffffffffffffffffffffffff1681526020019081526020015f2085611eb5565b5f73ffffffffffffffffffffffffffffffffffffffff168173ffffffffffffffffffffffffffffffffffffffff1614610eac57610eab60035f8373ffffffffffffffffffffffffffffffffffffffff1673ffffffffffffffffffffffffffffffffffffffff1681526020019081526020015f2085611eb5565b5b50505050565b5f60015f8481526020019081526020015f2090505f73ffffffffffffffffffffffffffffffffffffffff16815f015f9054906101000a900473ffffffffffffffffffffffffffffffffffffffff1673ffffffffffffffffffffffffffffffffffffffff1603610f56576040517f08c379a0000000000000000000000000000000000000000000000000000000008152600401610f4d90612bb6565b60405180910390fd5b3373ffffffffffffffffffffffffffffffffffffffff16815f015f9054906101000a900473ffffffffffffffffffffffffffffffffffffffff1673ffffffffffffffffffffffffffffffffffffffff1614610fe6576040517f08c379a0000000000000000000000000000000000000000000000000000000008152600401610fdd90612c86565b60405180910390fd5b806004015f9054906101000a900460ff1615611037576040517f08c379a000000000000000000000000000000000000000000000000000000000815260040161102e90612cee565b60405180910390fd5b80600501805490508210611080576040517f08c379a000000000000000000000000000000000000000000000000000000000815260040161107790612d56565b60405180910390fd5b80600501600182600501805490506110989190612da1565b815481106110a9576110a8612b3f565b5b905f5260205f2090600302018160050183815481106110cb576110ca612b3f565b5b905f5260205f2090600302015f8201815f0190816110e99190612f89565b506001820154816001015560028201548160020155905050806005018054806111155761111461306e565b5b600190038181905f5260205f2090600302015f5f82015f611136919061201b565b600182015f9055600282015f905550509055505050565b60605f60035f8473ffffffffffffffffffffffffffffffffffffffff1673ffffffffffffffffffffffffffffffffffffffff1681526020019081526020015f208054806020026020016040519081016040528092919081815260200182805480156111d557602002820191905f5260205f20905b8154815260200190600101908083116111c1575b505050505090505f815167ffffffffffffffff8111156111f8576111f761274f565b5b60405190808252806020026020018201604052801561123157816020015b61121e611fbb565b8152602001906001900390816112165790505b5090505f5f90505b82518110156114ff5760015f84838151811061125857611257612b3f565b5b602002602001015181526020019081526020015f206040518060c00160405290815f82015f9054906101000a900473ffffffffffffffffffffffffffffffffffffffff1673ffffffffffffffffffffffffffffffffffffffff1673ffffffffffffffffffffffffffffffffffffffff168152602001600182015f9054906101000a900473ffffffffffffffffffffffffffffffffffffffff1673ffffffffffffffffffffffffffffffffffffffff1673ffffffffffffffffffffffffffffffffffffffff1681526020016002820154815260200160038201805461133b90612b0f565b80601f016020809104026020016040519081016040528092919081815260200182805461136790612b0f565b80156113b25780601f10611389576101008083540402835291602001916113b2565b820191905f5260205f20905b81548152906001019060200180831161139557829003601f168201915b50505050508152602001600482015f9054906101000a900460ff1615151515815260200160058201805480602002602001604051908101604052809291908181526020015f905b828210156114cc578382905f5260205f2090600302016040518060600160405290815f8201805461142990612b0f565b80601f016020809104026020016040519081016040528092919081815260200182805461145590612b0f565b80156114a05780601f10611477576101008083540402835291602001916114a0565b820191905f5260205f20905b81548152906001019060200180831161148357829003601f168201915b5050505050815260200160018201548152602001600282015481525050815260200190600101906113f9565b50505050815250508282815181106114e7576114e6612b3f565b5b60200260200101819052508080600101915050611239565b508092505050919050565b611512611f6e565b5f60015f8381526020019081526020015f2090505f73ffffffffffffffffffffffffffffffffffffffff16815f015f9054906101000a900473ffffffffffffffffffffffffffffffffffffffff1673ffffffffffffffffffffffffffffffffffffffff16036115b6576040517f08c379a00000000000000000000000000000000000000000000000000000000081526004016115ad90612bb6565b60405180910390fd5b5f6115c083611b82565b90505f73ffffffffffffffffffffffffffffffffffffffff16826001015f9054906101000a900473ffffffffffffffffffffffffffffffffffffffff1673ffffffffffffffffffffffffffffffffffffffff16146116aa57816001015f9054906101000a900473ffffffffffffffffffffffffffffffffffffffff1673ffffffffffffffffffffffffffffffffffffffff163373ffffffffffffffffffffffffffffffffffffffff16146116a9576040517f08c379a00000000000000000000000000000000000000000000000000000000081526004016116a09061310b565b60405180910390fd5b5b803410156116ed576040517f08c379a00000000000000000000000000000000000000000000000000000000081526004016116e490613173565b60405180910390fd5b816004015f9054906101000a900460ff161561173e576040517f08c379a0000000000000000000000000000000000000000000000000000000008152600401611735906131db565b60405180910390fd5b6001826004015f6101000a81548160ff0219169083151502179055505f825f015f9054906101000a900473ffffffffffffffffffffffffffffffffffffffff1673ffffffffffffffffffffffffffffffffffffffff16826040516117a190613226565b5f6040518083038185875af1925050503d805f81146117db576040519150601f19603f3d011682016040523d82523d5f602084013e6117e0565b606091505b5050905080611824576040517f08c379a000000000000000000000000000000000000000000000000000000000815260040161181b90613284565b60405180910390fd5b813411156118e1575f3373ffffffffffffffffffffffffffffffffffffffff1683346118509190612da1565b60405161185c90613226565b5f6040518083038185875af1925050503d805f8114611896576040519150601f19603f3d011682016040523d82523d5f602084013e61189b565b606091505b50509050806118df576040517f08c379a00000000000000000000000000000000000000000000000000000000081526004016118d690613284565b60405180910390fd5b505b5050506118ec611fb2565b50565b5f60045f815480929190611902906132a2565b9190505590505f60015f8381526020019081526020015f20905033815f015f6101000a81548173ffffffffffffffffffffffffffffffffffffffff021916908373ffffffffffffffffffffffffffffffffffffffff16021790555081816002018190555082816001015f6101000a81548173ffffffffffffffffffffffffffffffffffffffff021916908373ffffffffffffffffffffffffffffffffffffffff16021790555060035f8473ffffffffffffffffffffffffffffffffffffffff1673ffffffffffffffffffffffffffffffffffffffff1681526020019081526020015f2082908060018154018082558091505060019003905f5260205f20015f909190919091505584816003019081611a1a91906132e9565b505f816004015f6101000a81548160ff0219169083151502179055505f5f90505b8451811015611b1957816005016040518060600160405280878481518110611a6657611a65612b3f565b5b60200260200101515f01518152602001878481518110611a8957611a88612b3f565b5b6020026020010151602001518152602001878481518110611aad57611aac612b3f565b5b602002602001015160400151815250908060018154018082558091505060019003905f5260205f2090600302015f909190919091505f820151815f019081611af591906132e9565b50602082015181600101556040820151816002015550508080600101915050611a3b565b5060025f3373ffffffffffffffffffffffffffffffffffffffff1673ffffffffffffffffffffffffffffffffffffffff1681526020019081526020015f2082908060018154018082558091505060019003905f5260205f20015f90919091909150555050505050565b5f5f60015f8481526020019081526020015f2090505f73ffffffffffffffffffffffffffffffffffffffff16815f015f9054906101000a900473ffffffffffffffffffffffffffffffffffffffff1673ffffffffffffffffffffffffffffffffffffffff1603611c27576040517f08c379a0000000000000000000000000000000000000000000000000000000008152600401611c1e90612bb6565b60405180910390fd5b5f5f90505f5f90505b8260050180549050811015611caf57826005018181548110611c5557611c54612b3f565b5b905f5260205f20906003020160020154836005018281548110611c7b57611c7a612b3f565b5b905f5260205f20906003020160010154611c9591906133b8565b82611ca091906133f9565b91508080600101915050611c30565b508092505050919050565b5f60015f8681526020019081526020015f2090505f73ffffffffffffffffffffffffffffffffffffffff16815f015f9054906101000a900473ffffffffffffffffffffffffffffffffffffffff1673ffffffffffffffffffffffffffffffffffffffff1603611d5e576040517f08c379a0000000000000000000000000000000000000000000000000000000008152600401611d5590612bb6565b60405180910390fd5b3373ffffffffffffffffffffffffffffffffffffffff16815f015f9054906101000a900473ffffffffffffffffffffffffffffffffffffffff1673ffffffffffffffffffffffffffffffffffffffff1614611dee576040517f08c379a0000000000000000000000000000000000000000000000000000000008152600401611de590612c86565b60405180910390fd5b806004015f9054906101000a900460ff1615611e3f576040517f08c379a0000000000000000000000000000000000000000000000000000000008152600401611e3690612cee565b60405180910390fd5b80600501604051806060016040528086815260200185815260200184815250908060018154018082558091505060019003905f5260205f2090600302015f909190919091505f820151815f019081611e9791906132e9565b50602082015181600101556040820151816002015550505050505050565b5f5f90505b8280549050811015611f695781838281548110611eda57611ed9612b3f565b5b905f5260205f20015403611f5c578260018480549050611efa9190612da1565b81548110611f0b57611f0a612b3f565b5b905f5260205f200154838281548110611f2757611f26612b3f565b5b905f5260205f20018190555082805480611f4457611f4361306e565b5b600190038181905f5260205f20015f90559055611f69565b8080600101915050611eba565b505050565b60025f5403611fa9576040517f3ee5aeb500000000000000000000000000000000000000000000000000000000815260040160405180910390fd5b60025f81905550565b60015f81905550565b6040518060c001604052805f73ffffffffffffffffffffffffffffffffffffffff1681526020015f73ffffffffffffffffffffffffffffffffffffffff1681526020015f8152602001606081526020015f15158152602001606081525090565b50805461202790612b0f565b5f825580601f106120385750612055565b601f0160209004905f5260205f20908101906120549190612079565b5b50565b5080545f8255600302905f5260205f20908101906120769190612094565b50565b5b80821115612090575f815f90555060010161207a565b5090565b5b808211156120c3575f5f82015f6120ac919061201b565b600182015f9055600282015f905550600301612095565b5090565b5f604051905090565b5f5ffd5b5f5ffd5b5f819050919050565b6120ea816120d8565b81146120f4575f5ffd5b50565b5f81359050612105816120e1565b92915050565b5f602082840312156121205761211f6120d0565b5b5f61212d848285016120f7565b91505092915050565b5f73ffffffffffffffffffffffffffffffffffffffff82169050919050565b5f61215f82612136565b9050919050565b61216f81612155565b82525050565b61217e816120d8565b82525050565b5f81519050919050565b5f82825260208201905092915050565b8281835e5f83830152505050565b5f601f19601f8301169050919050565b5f6121c682612184565b6121d0818561218e565b93506121e081856020860161219e565b6121e9816121ac565b840191505092915050565b5f8115159050919050565b612208816121f4565b82525050565b5f81519050919050565b5f82825260208201905092915050565b5f819050602082019050919050565b5f606083015f8301518482035f86015261225182826121bc565b91505060208301516122666020860182612175565b5060408301516122796040860182612175565b508091505092915050565b5f61228f8383612237565b905092915050565b5f602082019050919050565b5f6122ad8261220e565b6122b78185612218565b9350836020820285016122c985612228565b805f5b8581101561230457848403895281516122e58582612284565b94506122f083612297565b925060208a019950506001810190506122cc565b50829750879550505050505092915050565b5f60c083015f83015161232b5f860182612166565b50602083015161233e6020860182612166565b5060408301516123516040860182612175565b506060830151848203606086015261236982826121bc565b915050608083015161237e60808601826121ff565b5060a083015184820360a086015261239682826122a3565b9150508091505092915050565b5f6020820190508181035f8301526123bb8184612316565b905092915050565b6123cc81612155565b81146123d6575f5ffd5b50565b5f813590506123e7816123c3565b92915050565b5f60208284031215612402576124016120d0565b5b5f61240f848285016123d9565b91505092915050565b5f81519050919050565b5f82825260208201905092915050565b5f819050602082019050919050565b5f60c083015f8301516124565f860182612166565b5060208301516124696020860182612166565b50604083015161247c6040860182612175565b506060830151848203606086015261249482826121bc565b91505060808301516124a960808601826121ff565b5060a083015184820360a08601526124c182826122a3565b9150508091505092915050565b5f6124d98383612441565b905092915050565b5f602082019050919050565b5f6124f782612418565b6125018185612422565b93508360208202850161251385612432565b805f5b8581101561254e578484038952815161252f85826124ce565b945061253a836124e1565b925060208a01995050600181019050612516565b50829750879550505050505092915050565b5f6020820190508181035f83015261257881846124ed565b905092915050565b61258981612155565b82525050565b612598816120d8565b82525050565b5f82825260208201905092915050565b5f6125b882612184565b6125c2818561259e565b93506125d281856020860161219e565b6125db816121ac565b840191505092915050565b6125ef816121f4565b82525050565b5f60a0820190506126085f830188612580565b6126156020830187612580565b612622604083018661258f565b818103606083015261263481856125ae565b905061264360808301846125e6565b9695505050505050565b5f6020820190506126605f83018461258f565b92915050565b5f82825260208201905092915050565b5f6126808261220e565b61268a8185612666565b93508360208202850161269c85612228565b805f5b858110156126d757848403895281516126b88582612284565b94506126c383612297565b925060208a0199505060018101905061269f565b50829750879550505050505092915050565b5f6020820190508181035f8301526127018184612676565b905092915050565b5f5f6040838503121561271f5761271e6120d0565b5b5f61272c858286016120f7565b925050602061273d858286016120f7565b9150509250929050565b5f5ffd5b5f5ffd5b7f4e487b71000000000000000000000000000000000000000000000000000000005f52604160045260245ffd5b612785826121ac565b810181811067ffffffffffffffff821117156127a4576127a361274f565b5b80604052505050565b5f6127b66120c7565b90506127c2828261277c565b919050565b5f67ffffffffffffffff8211156127e1576127e061274f565b5b6127ea826121ac565b9050602081019050919050565b828183375f83830152505050565b5f612817612812846127c7565b6127ad565b9050828152602081018484840111156128335761283261274b565b5b61283e8482856127f7565b509392505050565b5f82601f83011261285a57612859612747565b5b813561286a848260208601612805565b91505092915050565b5f67ffffffffffffffff82111561288d5761288c61274f565b5b602082029050602081019050919050565b5f5ffd5b5f5ffd5b5f5ffd5b5f606082840312156128bf576128be6128a2565b5b6128c960606127ad565b90505f82013567ffffffffffffffff8111156128e8576128e76128a6565b5b6128f484828501612846565b5f830152506020612907848285016120f7565b602083015250604061291b848285016120f7565b60408301525092915050565b5f61293961293484612873565b6127ad565b9050808382526020820190506020840283018581111561295c5761295b61289e565b5b835b818110156129a357803567ffffffffffffffff81111561298157612980612747565b5b80860161298e89826128aa565b8552602085019450505060208101905061295e565b5050509392505050565b5f82601f8301126129c1576129c0612747565b5b81356129d1848260208601612927565b91505092915050565b5f5f5f606084860312156129f1576129f06120d0565b5b5f84013567ffffffffffffffff811115612a0e57612a0d6120d4565b5b612a1a86828701612846565b935050602084013567ffffffffffffffff811115612a3b57612a3a6120d4565b5b612a47868287016129ad565b9250506040612a58868287016123d9565b9150509250925092565b5f5f5f5f60808587031215612a7a57612a796120d0565b5b5f612a87878288016120f7565b945050602085013567ffffffffffffffff811115612aa857612aa76120d4565b5b612ab487828801612846565b9350506040612ac5878288016120f7565b9250506060612ad6878288016120f7565b91505092959194509250565b7f4e487b71000000000000000000000000000000000000000000000000000000005f52602260045260245ffd5b5f6002820490506001821680612b2657607f821691505b602082108103612b3957612b38612ae2565b5b50919050565b7f4e487b71000000000000000000000000000000000000000000000000000000005f52603260045260245ffd5b7f496e766f69636520646f6573206e6f74206578697374000000000000000000005f82015250565b5f612ba060168361259e565b9150612bab82612b6c565b602082019050919050565b5f6020820190508181035f830152612bcd81612b94565b9050919050565b7f43616e27742064656c65746520696e766f6963650000000000000000000000005f82015250565b5f612c0860148361259e565b9150612c1382612bd4565b602082019050919050565b5f6020820190508181035f830152612c3581612bfc565b9050919050565b7f4e6f7420696e766f696365206f776e65720000000000000000000000000000005f82015250565b5f612c7060118361259e565b9150612c7b82612c3c565b602082019050919050565b5f6020820190508181035f830152612c9d81612c64565b9050919050565b7f43616e6e6f74206d6f64696679207061696420696e766f6963650000000000005f82015250565b5f612cd8601a8361259e565b9150612ce382612ca4565b602082019050919050565b5f6020820190508181035f830152612d0581612ccc565b9050919050565b7f496e646578206f7574206f6620626f756e6473000000000000000000000000005f82015250565b5f612d4060138361259e565b9150612d4b82612d0c565b602082019050919050565b5f6020820190508181035f830152612d6d81612d34565b9050919050565b7f4e487b71000000000000000000000000000000000000000000000000000000005f52601160045260245ffd5b5f612dab826120d8565b9150612db6836120d8565b9250828203905081811115612dce57612dcd612d74565b5b92915050565b5f81549050612de281612b0f565b9050919050565b5f819050815f5260205f209050919050565b5f6020601f8301049050919050565b5f82821b905092915050565b5f60088302612e457fffffffffffffffffffffffffffffffffffffffffffffffffffffffffffffffff82612e0a565b612e4f8683612e0a565b95508019841693508086168417925050509392505050565b5f819050919050565b5f612e8a612e85612e80846120d8565b612e67565b6120d8565b9050919050565b5f819050919050565b612ea383612e70565b612eb7612eaf82612e91565b848454612e16565b825550505050565b5f5f905090565b612ece612ebf565b612ed9818484612e9a565b505050565b5b81811015612efc57612ef15f82612ec6565b600181019050612edf565b5050565b601f821115612f4157612f1281612de9565b612f1b84612dfb565b81016020851015612f2a578190505b612f3e612f3685612dfb565b830182612ede565b50505b505050565b5f82821c905092915050565b5f612f615f1984600802612f46565b1980831691505092915050565b5f612f798383612f52565b9150826002028217905092915050565b818103612f9757505061306c565b612fa082612dd4565b67ffffffffffffffff811115612fb957612fb861274f565b5b612fc38254612b0f565b612fce828285612f00565b5f601f831160018114612ffb575f8415612fe9578287015490505b612ff38582612f6e565b865550613065565b601f19841661300987612de9565b965061301486612de9565b5f5b8281101561303b57848901548255600182019150600185019450602081019050613016565b868310156130585784890154613054601f891682612f52565b8355505b6001600288020188555050505b5050505050505b565b7f4e487b71000000000000000000000000000000000000000000000000000000005f52603160045260245ffd5b7f596f7520617265206e6f7420617574686f72697a656420746f207061792074685f8201527f697320696e766f69636500000000000000000000000000000000000000000000602082015250565b5f6130f5602a8361259e565b91506131008261309b565b604082019050919050565b5f6020820190508181035f830152613122816130e9565b9050919050565b7f496e73756666696369656e74207061796d656e740000000000000000000000005f82015250565b5f61315d60148361259e565b915061316882613129565b602082019050919050565b5f6020820190508181035f83015261318a81613151565b9050919050565b7f496e766f69636520616c726561647920706169640000000000000000000000005f82015250565b5f6131c560148361259e565b91506131d082613191565b602082019050919050565b5f6020820190508181035f8301526131f2816131b9565b9050919050565b5f81905092915050565b50565b5f6132115f836131f9565b915061321c82613203565b5f82019050919050565b5f61323082613206565b9150819050919050565b7f5061796d656e74207472616e73666572206661696c65640000000000000000005f82015250565b5f61326e60178361259e565b91506132798261323a565b602082019050919050565b5f6020820190508181035f83015261329b81613262565b9050919050565b5f6132ac826120d8565b91507fffffffffffffffffffffffffffffffffffffffffffffffffffffffffffffffff82036132de576132dd612d74565b5b600182019050919050565b6132f282612184565b67ffffffffffffffff81111561330b5761330a61274f565b5b6133158254612b0f565b613320828285612f00565b5f60209050601f831160018114613351575f841561333f578287015190505b6133498582612f6e565b8655506133b0565b601f19841661335f86612de9565b5f5b8281101561338657848901518255600182019150602085019450602081019050613361565b868310156133a3578489015161339f601f891682612f52565b8355505b6001600288020188555050505b505050505050565b5f6133c2826120d8565b91506133cd836120d8565b92508282026133db816120d8565b915082820484148315176133f2576133f1612d74565b5b5092915050565b5f613403826120d8565b915061340e836120d8565b925082820190508082111561342657613425612d74565b5b9291505056fea2646970667358221220a1383d0edc8e25b74b3a652e52dca19db4edc5c777f48d4bb8be2081e30023d064736f6c634300081c0033",
  "linkReferences": {},
  "deployedLinkReferences": {},
  "immutableReferences": {},
  "inputSourceName": "project/contracts/Invoice/Invoice.sol",
  "buildInfoId": "solc-0_8_28-66c042eb3967b9260b84a2d95d82485542b713ed"
}