{
  "_format": "hh3-artifact-1",
  "contractName": "InvoiceManager",
  "sourceName": "contracts/Invoice/Invoice.sol",
  "abi": [
    {
      "inputs": [
        {
          "internalType": "uint256",
          "name": "invoiceId",
          "type": "uint256"
        },
        {
          "internalType": "string",
          "name": "description",
          "type": "string"
        },
        {
          "internalType": "uint256",
          "name": "quantity",
          "type": "uint256"
        },
        {
          "internalType": "uint256",
          "name": "unitPrice",
          "type": "uint256"
        }
      ],
      "name": "addItem",
      "outputs": [],
      "stateMutability": "nonpayable",
      "type": "function"
    },
    {
      "inputs": [
        {
          "internalType": "string",
          "name": "title",
          "type": "string"
        },
        {
          "components": [
            {
              "internalType": "string",
              "name": "description",
              "type": "string"
            },
            {
              "internalType": "uint256",
              "name": "quantity",
              "type": "uint256"
            },
            {
              "internalType": "uint256",
              "name": "unitPrice",
              "type": "uint256"
            }
          ],
          "internalType": "struct InvoiceManager.Item[]",
          "name": "items",
          "type": "tuple[]"
        },
        {
          "internalType": "address",
          "name": "payer",
          "type": "address"
        }
      ],
      "name": "createInvoice",
      "outputs": [],
      "stateMutability": "nonpayable",
      "type": "function"
    },
    {
      "inputs": [
        {
          "internalType": "uint256",
          "name": "invoiceId",
          "type": "uint256"
        }
      ],
      "name": "deleteInvoice",
      "outputs": [],
      "stateMutability": "nonpayable",
      "type": "function"
    },
    {
      "inputs": [
        {
          "internalType": "uint256",
          "name": "invoiceId",
          "type": "uint256"
        }
      ],
      "name": "getInvoice",
      "outputs": [
        {
          "components": [
            {
              "internalType": "address",
              "name": "owner",
              "type": "address"
            },
            {
              "internalType": "address",
              "name": "payer",
              "type": "address"
            },
            {
              "internalType": "uint256",
              "name": "id",
              "type": "uint256"
            },
            {
              "internalType": "string",
              "name": "title",
              "type": "string"
            },
            {
              "internalType": "bool",
              "name": "paid",
              "type": "bool"
            },
            {
              "components": [
                {
                  "internalType": "string",
                  "name": "description",
                  "type": "string"
                },
                {
                  "internalType": "uint256",
                  "name": "quantity",
                  "type": "uint256"
                },
                {
                  "internalType": "uint256",
                  "name": "unitPrice",
                  "type": "uint256"
                }
              ],
              "internalType": "struct InvoiceManager.Item[]",
              "name": "items",
              "type": "tuple[]"
            }
          ],
          "internalType": "struct InvoiceManager.Invoice",
          "name": "",
          "type": "tuple"
        }
      ],
      "stateMutability": "view",
      "type": "function"
    },
    {
      "inputs": [
        {
          "internalType": "address",
          "name": "owner",
          "type": "address"
        }
      ],
      "name": "getInvoicesByOwner",
      "outputs": [
        {
          "components": [
            {
              "internalType": "address",
              "name": "owner",
              "type": "address"
            },
            {
              "internalType": "address",
              "name": "payer",
              "type": "address"
            },
            {
              "internalType": "uint256",
              "name": "id",
              "type": "uint256"
            },
            {
              "internalType": "string",
              "name": "title",
              "type": "string"
            },
            {
              "internalType": "bool",
              "name": "paid",
              "type": "bool"
            },
            {
              "components": [
                {
                  "internalType": "string",
                  "name": "description",
                  "type": "string"
                },
                {
                  "internalType": "uint256",
                  "name": "quantity",
                  "type": "uint256"
                },
                {
                  "internalType": "uint256",
                  "name": "unitPrice",
                  "type": "uint256"
                }
              ],
              "internalType": "struct InvoiceManager.Item[]",
              "name": "items",
              "type": "tuple[]"
            }
          ],
          "internalType": "struct InvoiceManager.Invoice[]",
          "name": "",
          "type": "tuple[]"
        }
      ],
      "stateMutability": "view",
      "type": "function"
    },
    {
      "inputs": [
        {
          "internalType": "uint256",
          "name": "invoiceId",
          "type": "uint256"
        }
      ],
      "name": "getItems",
      "outputs": [
        {
          "components": [
            {
              "internalType": "string",
              "name": "description",
              "type": "string"
            },
            {
              "internalType": "uint256",
              "name": "quantity",
              "type": "uint256"
            },
            {
              "internalType": "uint256",
              "name": "unitPrice",
              "type": "uint256"
            }
          ],
          "internalType": "struct InvoiceManager.Item[]",
          "name": "",
          "type": "tuple[]"
        }
      ],
      "stateMutability": "view",
      "type": "function"
    },
    {
      "inputs": [
        {
          "internalType": "uint256",
          "name": "invoiceId",
          "type": "uint256"
        }
      ],
      "name": "getTotalPrice",
      "outputs": [
        {
          "internalType": "uint256",
          "name": "",
          "type": "uint256"
        }
      ],
      "stateMutability": "view",
      "type": "function"
    },
    {
      "inputs": [
        {
          "internalType": "uint256",
          "name": "",
          "type": "uint256"
        }
      ],
      "name": "invoices",
      "outputs": [
        {
          "internalType": "address",
          "name": "owner",
          "type": "address"
        },
        {
          "internalType": "address",
          "name": "payer",
          "type": "address"
        },
        {
          "internalType": "uint256",
          "name": "id",
          "type": "uint256"
        },
        {
          "internalType": "string",
          "name": "title",
          "type": "string"
        },
        {
          "internalType": "bool",
          "name": "paid",
          "type": "bool"
        }
      ],
      "stateMutability": "view",
      "type": "function"
    },
    {
      "inputs": [],
      "name": "nextInvoiceId",
      "outputs": [
        {
          "internalType": "uint256",
          "name": "",
          "type": "uint256"
        }
      ],
      "stateMutability": "view",
      "type": "function"
    },
    {
      "inputs": [
        {
          "internalType": "uint256",
          "name": "invoiceId",
          "type": "uint256"
        }
      ],
      "name": "payInvoice",
      "outputs": [],
      "stateMutability": "payable",
      "type": "function"
    },
    {
      "inputs": [
        {
          "internalType": "uint256",
          "name": "invoiceId",
          "type": "uint256"
        },
        {
          "internalType": "uint256",
          "name": "index",
          "type": "uint256"
        }
      ],
      "name": "removeItem",
      "outputs": [],
      "stateMutability": "nonpayable",
      "type": "function"
    }
  ],
  "bytecode": "0x6080604052348015600e575f5ffd5b506128228061001c5f395ff3fe60806040526004361061009b575f3560e01c806380c8610f1161006357806380c8610f146101bd578063870fc347146101e5578063ac60a6cd1461020d578063b8e524e214610229578063ca7dd37514610251578063ec67b45d1461028d5761009b565b80633a23cc0a1461009f5780633c195e52146100db5780634e6d1405146101175780636ff2a95314610157578063796c5e9414610181575b5f5ffd5b3480156100aa575f5ffd5b506100c560048036038101906100c091906116d5565b6102b5565b6040516100d2919061196d565b60405180910390f35b3480156100e6575f5ffd5b5061010160048036038101906100fc91906119b7565b61053b565b60405161010e9190611b2a565b60405180910390f35b348015610122575f5ffd5b5061013d600480360381019061013891906116d5565b6108f7565b60405161014e959493929190611bbf565b60405180910390f35b348015610162575f5ffd5b5061016b6109f8565b6040516101789190611c17565b60405180910390f35b34801561018c575f5ffd5b506101a760048036038101906101a291906116d5565b6109fe565b6040516101b49190611cb3565b60405180910390f35b3480156101c8575f5ffd5b506101e360048036038101906101de91906116d5565b610b10565b005b3480156101f0575f5ffd5b5061020b60048036038101906102069190611cd3565b610d43565b005b610227600480360381019061022291906116d5565b610efc565b005b348015610234575f5ffd5b5061024f600480360381019061024a9190611fa4565b611194565b005b34801561025c575f5ffd5b50610277600480360381019061027291906116d5565b6113c5565b6040516102849190611c17565b60405180910390f35b348015610298575f5ffd5b506102b360048036038101906102ae919061202c565b61146c565b005b6102bd611585565b5f5f8381526020019081526020015f206040518060c00160405290815f82015f9054906101000a900473ffffffffffffffffffffffffffffffffffffffff1673ffffffffffffffffffffffffffffffffffffffff1673ffffffffffffffffffffffffffffffffffffffff168152602001600182015f9054906101000a900473ffffffffffffffffffffffffffffffffffffffff1673ffffffffffffffffffffffffffffffffffffffff1673ffffffffffffffffffffffffffffffffffffffff1681526020016002820154815260200160038201805461039b906120d9565b80601f01602080910402602001604051908101604052809291908181526020018280546103c7906120d9565b80156104125780601f106103e957610100808354040283529160200191610412565b820191905f5260205f20905b8154815290600101906020018083116103f557829003601f168201915b50505050508152602001600482015f9054906101000a900460ff1615151515815260200160058201805480602002602001604051908101604052809291908181526020015f905b8282101561052c578382905f5260205f2090600302016040518060600160405290815f82018054610489906120d9565b80601f01602080910402602001604051908101604052809291908181526020018280546104b5906120d9565b80156105005780601f106104d757610100808354040283529160200191610500565b820191905f5260205f20905b8154815290600101906020018083116104e357829003601f168201915b505050505081526020016001820154815260200160028201548152505081526020019060010190610459565b50505050815250509050919050565b60605f60015f8473ffffffffffffffffffffffffffffffffffffffff1673ffffffffffffffffffffffffffffffffffffffff1681526020019081526020015f208054806020026020016040519081016040528092919081815260200182805480156105c357602002820191905f5260205f20905b8154815260200190600101908083116105af575b505050505090505f815167ffffffffffffffff8111156105e6576105e5611d19565b5b60405190808252806020026020018201604052801561061f57816020015b61060c611585565b8152602001906001900390816106045790505b5090505f5f90505b82518110156108ec575f5f84838151811061064557610644612109565b5b602002602001015181526020019081526020015f206040518060c00160405290815f82015f9054906101000a900473ffffffffffffffffffffffffffffffffffffffff1673ffffffffffffffffffffffffffffffffffffffff1673ffffffffffffffffffffffffffffffffffffffff168152602001600182015f9054906101000a900473ffffffffffffffffffffffffffffffffffffffff1673ffffffffffffffffffffffffffffffffffffffff1673ffffffffffffffffffffffffffffffffffffffff16815260200160028201548152602001600382018054610728906120d9565b80601f0160208091040260200160405190810160405280929190818152602001828054610754906120d9565b801561079f5780601f106107765761010080835404028352916020019161079f565b820191905f5260205f20905b81548152906001019060200180831161078257829003601f168201915b50505050508152602001600482015f9054906101000a900460ff1615151515815260200160058201805480602002602001604051908101604052809291908181526020015f905b828210156108b9578382905f5260205f2090600302016040518060600160405290815f82018054610816906120d9565b80601f0160208091040260200160405190810160405280929190818152602001828054610842906120d9565b801561088d5780601f106108645761010080835404028352916020019161088d565b820191905f5260205f20905b81548152906001019060200180831161087057829003601f168201915b5050505050815260200160018201548152602001600282015481525050815260200190600101906107e6565b50505050815250508282815181106108d4576108d3612109565b5b60200260200101819052508080600101915050610627565b508092505050919050565b5f602052805f5260405f205f91509050805f015f9054906101000a900473ffffffffffffffffffffffffffffffffffffffff1690806001015f9054906101000a900473ffffffffffffffffffffffffffffffffffffffff1690806002015490806003018054610965906120d9565b80601f0160208091040260200160405190810160405280929190818152602001828054610991906120d9565b80156109dc5780601f106109b3576101008083540402835291602001916109dc565b820191905f5260205f20905b8154815290600101906020018083116109bf57829003601f168201915b505050505090806004015f9054906101000a900460ff16905085565b60035481565b60605f5f8381526020019081526020015f20600501805480602002602001604051908101604052809291908181526020015f905b82821015610b05578382905f5260205f2090600302016040518060600160405290815f82018054610a62906120d9565b80601f0160208091040260200160405190810160405280929190818152602001828054610a8e906120d9565b8015610ad95780601f10610ab057610100808354040283529160200191610ad9565b820191905f5260205f20905b815481529060010190602001808311610abc57829003601f168201915b505050505081526020016001820154815260200160028201548152505081526020019060010190610a32565b505050509050919050565b5f5f5f8381526020019081526020015f2090503373ffffffffffffffffffffffffffffffffffffffff16815f015f9054906101000a900473ffffffffffffffffffffffffffffffffffffffff1673ffffffffffffffffffffffffffffffffffffffff1614610bb3576040517f08c379a0000000000000000000000000000000000000000000000000000000008152600401610baa90612180565b60405180910390fd5b5f5f8381526020019081526020015f205f5f82015f6101000a81549073ffffffffffffffffffffffffffffffffffffffff0219169055600182015f6101000a81549073ffffffffffffffffffffffffffffffffffffffff0219169055600282015f9055600382015f610c2591906115e5565b600482015f6101000a81549060ff0219169055600582015f610c479190611622565b50505f60015f3373ffffffffffffffffffffffffffffffffffffffff1673ffffffffffffffffffffffffffffffffffffffff1681526020019081526020015f2090505f5f90505b8180549050811015610d3d5783828281548110610cae57610cad612109565b5b905f5260205f20015403610d30578160018380549050610cce91906121cb565b81548110610cdf57610cde612109565b5b905f5260205f200154828281548110610cfb57610cfa612109565b5b905f5260205f20018190555081805480610d1857610d176121fe565b5b600190038181905f5260205f20015f90559055610d3d565b8080600101915050610c8e565b50505050565b5f5f5f8481526020019081526020015f2090503373ffffffffffffffffffffffffffffffffffffffff16815f015f9054906101000a900473ffffffffffffffffffffffffffffffffffffffff1673ffffffffffffffffffffffffffffffffffffffff1614610de6576040517f08c379a0000000000000000000000000000000000000000000000000000000008152600401610ddd90612180565b60405180910390fd5b80600501805490508210610e2f576040517f08c379a0000000000000000000000000000000000000000000000000000000008152600401610e2690612275565b60405180910390fd5b8060050160018260050180549050610e4791906121cb565b81548110610e5857610e57612109565b5b905f5260205f209060030201816005018381548110610e7a57610e79612109565b5b905f5260205f2090600302015f8201815f019081610e989190612448565b50600182015481600101556002820154816002015590505080600501805480610ec457610ec36121fe565b5b600190038181905f5260205f2090600302015f5f82015f610ee591906115e5565b600182015f9055600282015f905550509055505050565b5f5f5f8381526020019081526020015f2090505f3073ffffffffffffffffffffffffffffffffffffffff1663ca7dd375846040518263ffffffff1660e01b8152600401610f499190611c17565b602060405180830381865afa158015610f64573d5f5f3e3d5ffd5b505050506040513d601f19601f82011682018060405250810190610f889190612541565b90505f73ffffffffffffffffffffffffffffffffffffffff16826001015f9054906101000a900473ffffffffffffffffffffffffffffffffffffffff1673ffffffffffffffffffffffffffffffffffffffff161461107257816001015f9054906101000a900473ffffffffffffffffffffffffffffffffffffffff1673ffffffffffffffffffffffffffffffffffffffff163373ffffffffffffffffffffffffffffffffffffffff1614611071576040517f08c379a0000000000000000000000000000000000000000000000000000000008152600401611068906125dc565b60405180910390fd5b5b803410156110b5576040517f08c379a00000000000000000000000000000000000000000000000000000000081526004016110ac90612644565b60405180910390fd5b6001826004015f6101000a81548160ff021916908315150217905550815f015f9054906101000a900473ffffffffffffffffffffffffffffffffffffffff1673ffffffffffffffffffffffffffffffffffffffff166108fc8290811502906040515f60405180830381858888f19350505050158015611136573d5f5f3e3d5ffd5b508034111561118f573373ffffffffffffffffffffffffffffffffffffffff166108fc823461116591906121cb565b90811502906040515f60405180830381858888f1935050505015801561118d573d5f5f3e3d5ffd5b505b505050565b5f60035f8154809291906111a790612662565b9190505590505f5f5f8381526020019081526020015f20905033815f015f6101000a81548173ffffffffffffffffffffffffffffffffffffffff021916908373ffffffffffffffffffffffffffffffffffffffff16021790555082816001015f6101000a81548173ffffffffffffffffffffffffffffffffffffffff021916908373ffffffffffffffffffffffffffffffffffffffff1602179055508181600201819055508481600301908161125d91906126a9565b505f816004015f6101000a81548160ff0219169083151502179055505f5f90505b845181101561135c578160050160405180606001604052808784815181106112a9576112a8612109565b5b60200260200101515f015181526020018784815181106112cc576112cb612109565b5b60200260200101516020015181526020018784815181106112f0576112ef612109565b5b602002602001015160400151815250908060018154018082558091505060019003905f5260205f2090600302015f909190919091505f820151815f01908161133891906126a9565b5060208201518160010155604082015181600201555050808060010191505061127e565b5060015f3373ffffffffffffffffffffffffffffffffffffffff1673ffffffffffffffffffffffffffffffffffffffff1681526020019081526020015f2082908060018154018082558091505060019003905f5260205f20015f90919091909150555050505050565b5f5f5f5f8481526020019081526020015f2090505f5f90505f5f90505b82600501805490508110156114615782600501818154811061140757611406612109565b5b905f5260205f2090600302016002015483600501828154811061142d5761142c612109565b5b905f5260205f209060030201600101546114479190612778565b8261145291906127b9565b915080806001019150506113e2565b508092505050919050565b5f5f5f8681526020019081526020015f2090503373ffffffffffffffffffffffffffffffffffffffff16815f015f9054906101000a900473ffffffffffffffffffffffffffffffffffffffff1673ffffffffffffffffffffffffffffffffffffffff161461150f576040517f08c379a000000000000000000000000000000000000000000000000000000000815260040161150690612180565b60405180910390fd5b80600501604051806060016040528086815260200185815260200184815250908060018154018082558091505060019003905f5260205f2090600302015f909190919091505f820151815f01908161156791906126a9565b50602082015181600101556040820151816002015550505050505050565b6040518060c001604052805f73ffffffffffffffffffffffffffffffffffffffff1681526020015f73ffffffffffffffffffffffffffffffffffffffff1681526020015f8152602001606081526020015f15158152602001606081525090565b5080546115f1906120d9565b5f825580601f10611602575061161f565b601f0160209004905f5260205f209081019061161e9190611643565b5b50565b5080545f8255600302905f5260205f2090810190611640919061165e565b50565b5b8082111561165a575f815f905550600101611644565b5090565b5b8082111561168d575f5f82015f61167691906115e5565b600182015f9055600282015f90555060030161165f565b5090565b5f604051905090565b5f5ffd5b5f5ffd5b5f819050919050565b6116b4816116a2565b81146116be575f5ffd5b50565b5f813590506116cf816116ab565b92915050565b5f602082840312156116ea576116e961169a565b5b5f6116f7848285016116c1565b91505092915050565b5f73ffffffffffffffffffffffffffffffffffffffff82169050919050565b5f61172982611700565b9050919050565b6117398161171f565b82525050565b611748816116a2565b82525050565b5f81519050919050565b5f82825260208201905092915050565b8281835e5f83830152505050565b5f601f19601f8301169050919050565b5f6117908261174e565b61179a8185611758565b93506117aa818560208601611768565b6117b381611776565b840191505092915050565b5f8115159050919050565b6117d2816117be565b82525050565b5f81519050919050565b5f82825260208201905092915050565b5f819050602082019050919050565b5f606083015f8301518482035f86015261181b8282611786565b9150506020830151611830602086018261173f565b506040830151611843604086018261173f565b508091505092915050565b5f6118598383611801565b905092915050565b5f602082019050919050565b5f611877826117d8565b61188181856117e2565b935083602082028501611893856117f2565b805f5b858110156118ce57848403895281516118af858261184e565b94506118ba83611861565b925060208a01995050600181019050611896565b50829750879550505050505092915050565b5f60c083015f8301516118f55f860182611730565b5060208301516119086020860182611730565b50604083015161191b604086018261173f565b50606083015184820360608601526119338282611786565b915050608083015161194860808601826117c9565b5060a083015184820360a0860152611960828261186d565b9150508091505092915050565b5f6020820190508181035f83015261198581846118e0565b905092915050565b6119968161171f565b81146119a0575f5ffd5b50565b5f813590506119b18161198d565b92915050565b5f602082840312156119cc576119cb61169a565b5b5f6119d9848285016119a3565b91505092915050565b5f81519050919050565b5f82825260208201905092915050565b5f819050602082019050919050565b5f60c083015f830151611a205f860182611730565b506020830151611a336020860182611730565b506040830151611a46604086018261173f565b5060608301518482036060860152611a5e8282611786565b9150506080830151611a7360808601826117c9565b5060a083015184820360a0860152611a8b828261186d565b9150508091505092915050565b5f611aa38383611a0b565b905092915050565b5f602082019050919050565b5f611ac1826119e2565b611acb81856119ec565b935083602082028501611add856119fc565b805f5b85811015611b185784840389528151611af98582611a98565b9450611b0483611aab565b925060208a01995050600181019050611ae0565b50829750879550505050505092915050565b5f6020820190508181035f830152611b428184611ab7565b905092915050565b611b538161171f565b82525050565b611b62816116a2565b82525050565b5f82825260208201905092915050565b5f611b828261174e565b611b8c8185611b68565b9350611b9c818560208601611768565b611ba581611776565b840191505092915050565b611bb9816117be565b82525050565b5f60a082019050611bd25f830188611b4a565b611bdf6020830187611b4a565b611bec6040830186611b59565b8181036060830152611bfe8185611b78565b9050611c0d6080830184611bb0565b9695505050505050565b5f602082019050611c2a5f830184611b59565b92915050565b5f82825260208201905092915050565b5f611c4a826117d8565b611c548185611c30565b935083602082028501611c66856117f2565b805f5b85811015611ca15784840389528151611c82858261184e565b9450611c8d83611861565b925060208a01995050600181019050611c69565b50829750879550505050505092915050565b5f6020820190508181035f830152611ccb8184611c40565b905092915050565b5f5f60408385031215611ce957611ce861169a565b5b5f611cf6858286016116c1565b9250506020611d07858286016116c1565b9150509250929050565b5f5ffd5b5f5ffd5b7f4e487b71000000000000000000000000000000000000000000000000000000005f52604160045260245ffd5b611d4f82611776565b810181811067ffffffffffffffff82111715611d6e57611d6d611d19565b5b80604052505050565b5f611d80611691565b9050611d8c8282611d46565b919050565b5f67ffffffffffffffff821115611dab57611daa611d19565b5b611db482611776565b9050602081019050919050565b828183375f83830152505050565b5f611de1611ddc84611d91565b611d77565b905082815260208101848484011115611dfd57611dfc611d15565b5b611e08848285611dc1565b509392505050565b5f82601f830112611e2457611e23611d11565b5b8135611e34848260208601611dcf565b91505092915050565b5f67ffffffffffffffff821115611e5757611e56611d19565b5b602082029050602081019050919050565b5f5ffd5b5f5ffd5b5f5ffd5b5f60608284031215611e8957611e88611e6c565b5b611e936060611d77565b90505f82013567ffffffffffffffff811115611eb257611eb1611e70565b5b611ebe84828501611e10565b5f830152506020611ed1848285016116c1565b6020830152506040611ee5848285016116c1565b60408301525092915050565b5f611f03611efe84611e3d565b611d77565b90508083825260208201905060208402830185811115611f2657611f25611e68565b5b835b81811015611f6d57803567ffffffffffffffff811115611f4b57611f4a611d11565b5b808601611f588982611e74565b85526020850194505050602081019050611f28565b5050509392505050565b5f82601f830112611f8b57611f8a611d11565b5b8135611f9b848260208601611ef1565b91505092915050565b5f5f5f60608486031215611fbb57611fba61169a565b5b5f84013567ffffffffffffffff811115611fd857611fd761169e565b5b611fe486828701611e10565b935050602084013567ffffffffffffffff8111156120055761200461169e565b5b61201186828701611f77565b9250506040612022868287016119a3565b9150509250925092565b5f5f5f5f608085870312156120445761204361169a565b5b5f612051878288016116c1565b945050602085013567ffffffffffffffff8111156120725761207161169e565b5b61207e87828801611e10565b935050604061208f878288016116c1565b92505060606120a0878288016116c1565b91505092959194509250565b7f4e487b71000000000000000000000000000000000000000000000000000000005f52602260045260245ffd5b5f60028204905060018216806120f057607f821691505b602082108103612103576121026120ac565b5b50919050565b7f4e487b71000000000000000000000000000000000000000000000000000000005f52603260045260245ffd5b7f4e6f7420696e766f696365206f776e65720000000000000000000000000000005f82015250565b5f61216a601183611b68565b915061217582612136565b602082019050919050565b5f6020820190508181035f8301526121978161215e565b9050919050565b7f4e487b71000000000000000000000000000000000000000000000000000000005f52601160045260245ffd5b5f6121d5826116a2565b91506121e0836116a2565b92508282039050818111156121f8576121f761219e565b5b92915050565b7f4e487b71000000000000000000000000000000000000000000000000000000005f52603160045260245ffd5b7f496e646578206f7574206f6620626f756e6473000000000000000000000000005f82015250565b5f61225f601383611b68565b915061226a8261222b565b602082019050919050565b5f6020820190508181035f83015261228c81612253565b9050919050565b5f815490506122a1816120d9565b9050919050565b5f819050815f5260205f209050919050565b5f6020601f8301049050919050565b5f82821b905092915050565b5f600883026123047fffffffffffffffffffffffffffffffffffffffffffffffffffffffffffffffff826122c9565b61230e86836122c9565b95508019841693508086168417925050509392505050565b5f819050919050565b5f61234961234461233f846116a2565b612326565b6116a2565b9050919050565b5f819050919050565b6123628361232f565b61237661236e82612350565b8484546122d5565b825550505050565b5f5f905090565b61238d61237e565b612398818484612359565b505050565b5b818110156123bb576123b05f82612385565b60018101905061239e565b5050565b601f821115612400576123d1816122a8565b6123da846122ba565b810160208510156123e9578190505b6123fd6123f5856122ba565b83018261239d565b50505b505050565b5f82821c905092915050565b5f6124205f1984600802612405565b1980831691505092915050565b5f6124388383612411565b9150826002028217905092915050565b81810361245657505061252b565b61245f82612293565b67ffffffffffffffff81111561247857612477611d19565b5b61248282546120d9565b61248d8282856123bf565b5f601f8311600181146124ba575f84156124a8578287015490505b6124b2858261242d565b865550612524565b601f1984166124c8876122a8565b96506124d3866122a8565b5f5b828110156124fa578489015482556001820191506001850194506020810190506124d5565b868310156125175784890154612513601f891682612411565b8355505b6001600288020188555050505b5050505050505b565b5f8151905061253b816116ab565b92915050565b5f602082840312156125565761255561169a565b5b5f6125638482850161252d565b91505092915050565b7f596f7520617265206e6f7420617574686f72697a656420746f207061792074685f8201527f697320696e766f69636500000000000000000000000000000000000000000000602082015250565b5f6125c6602a83611b68565b91506125d18261256c565b604082019050919050565b5f6020820190508181035f8301526125f3816125ba565b9050919050565b7f496e73756666696369656e74207061796d656e740000000000000000000000005f82015250565b5f61262e601483611b68565b9150612639826125fa565b602082019050919050565b5f6020820190508181035f83015261265b81612622565b9050919050565b5f61266c826116a2565b91507fffffffffffffffffffffffffffffffffffffffffffffffffffffffffffffffff820361269e5761269d61219e565b5b600182019050919050565b6126b28261174e565b67ffffffffffffffff8111156126cb576126ca611d19565b5b6126d582546120d9565b6126e08282856123bf565b5f60209050601f831160018114612711575f84156126ff578287015190505b612709858261242d565b865550612770565b601f19841661271f866122a8565b5f5b8281101561274657848901518255600182019150602085019450602081019050612721565b86831015612763578489015161275f601f891682612411565b8355505b6001600288020188555050505b505050505050565b5f612782826116a2565b915061278d836116a2565b925082820261279b816116a2565b915082820484148315176127b2576127b161219e565b5b5092915050565b5f6127c3826116a2565b91506127ce836116a2565b92508282019050808211156127e6576127e561219e565b5b9291505056fea2646970667358221220cb1309a914ea1d719a8847617dffa5fbb6e7edee4cc84bdfe08a4f68aee6b21064736f6c634300081c0033",
  "linkReferences": {},
  "deployedLinkReferences": {},
  "immutableReferences": {},
  "inputSourceName": "project/contracts/Invoice/Invoice.sol",
  "buildInfoId": "solc-0_8_28-8071640177d3fe63a13e875a01fb70b676b5de34"
}